:100000000C9472000C949A000C949A000C949A0030
:100010000C949A000C949A000C949A000C949A00F8
:100020000C949A000C949A000C949A000C949A00E8
:100030000C949A000C949A000C949A000C949A00D8
:100040000C9435050C949A000C94A5050C947F052E
:100050000C949A000C949A000C949A000C949A00B8
:100060000C949A000C949A00005EBCE2613FDD8320
:10007000C29C7E20A3FD1F41009D23BE46DB65F888
:100080008C11AF32CA57E974000000080002010069
:100090000003040700000000000000000000000052
:1000A000250028002B0000000000240027002A0063
:1000B00000000000230026002900040404040404B6
:1000C0000404020202020202030303030303010207
:1000D00004081020408001020408102001020408D6
:1000E0001020D70511241FBECFEFD8E0DEBFCDBF53
:1000F00013E0A0E0B1E0E0EAFAE102C005900D9261
:10010000A836B107D9F724E0A8E6B3E001C01D92F4
:10011000AD33B207E1F710E0C2E7D0E004C02197A9
:10012000FE010E947E0BC137D107C9F70E947206FB
:100130000C944E0D0C94000090E0FC01E857FF4F2A
:100140002491FC01E253FF4F3491FC01E654FF4F30
:10015000E491EE23C9F0222339F0233001F1A8F411
:10016000213019F1223029F1F0E0EE0FFF1FE456A3
:10017000FF4FA591B4918FB7F894EC91611126C00F
:1001800030953E233C938FBF08952730A9F0283047
:10019000C9F0243049F7809180008F7D03C08091A1
:1001A00080008F7780938000DFCF84B58F7784BD08
:1001B000DBCF84B58F7DFBCF8091B0008F778093AC
:1001C000B000D2CF8091B0008F7DF9CF3E2BDACF37
:1001D0003FB7F8948091770390917803A0917903C9
:1001E000B0917A0326B5A89B05C02F3F19F0019660
:1001F000A11DB11D3FBFBA2FA92F982F8827BC0181
:10020000CD01620F711D811D911D42E0660F771FA8
:10021000881F991F4A95D1F708958F929F92AF92A8
:10022000BF92CF92DF92EF92FF926B017C010E940E
:10023000E8004B015C01C114D104E104F104B9F000
:100240000E94E800681979098A099B09683E734091
:100250008105910580F321E0C21AD108E108F10877
:1002600088EE880E83E0981EA11CB11CE4CFFF909D
:10027000EF90DF90CF90BF90AF909F908F900895B8
:10028000AF92BF92CF92DF92EF92FF920F931F93A4
:10029000CF93DF936C017B018B01040F151FEB01E2
:1002A0005E01AE18BF08C017D10759F06991D60199
:1002B000ED91FC910190F081E02DC6010995892B0B
:1002C00079F7C501DF91CF911F910F91FF90EF90CA
:1002D000DF90CF90BF90AF900895FC01538D448D77
:1002E000252F30E0842F90E0821B930B541710F0E1
:1002F000CF96089501970895FC01918D828D9817EE
:1003000061F0A28DAE0FBF2FB11D5D968C91928DC5
:100310009F5F9F73928F90E008958FEF9FEF0895F6
:10032000FC01918D828D981731F0828DE80FF11DBF
:10033000858D90E008958FEF9FEF0895FC01918DDA
:10034000228D892F90E0805C9F4F821B91098F73D3
:10035000992708958BE793E00E949E0121E0892B65
:1003600009F420E0822F089580E090E0892B29F0A5
:100370000E94AA0181110C9400000895FC01A48D33
:10038000A80FB92FB11DA35ABF4F2C91848D90E0B7
:1003900001968F739927848FA689B7892C93A0899A
:1003A000B1898C91837080648C93938D848D981324
:1003B00006C00288F389E02D80818F7D80830895B7
:1003C000EF92FF920F931F93CF93DF93EC0181E0A5
:1003D000888F9B8D8C8D98131AC0E889F98980814C
:1003E00085FF15C09FB7F894EE89FF896083E8897F
:1003F000F98980818370806480839FBF81E090E071
:10040000DF91CF911F910F91FF90EF900895F62EFD
:100410000B8D10E00F5F1F4F0F731127E02E8C8D97
:100420008E110CC00FB607FCFACFE889F9898081DC
:1004300085FFF5CFCE010E94BE01F1CFEB8DEC0F11
:10044000FD2FF11DE35AFF4FF0829FB7F8940B8FF9
:10045000EA89FB8980818062CFCFCF93DF93EC0163
:10046000888D8823B9F0AA89BB89E889F9898C919C
:1004700085FD03C0808186FD0DC00FB607FCF7CF58
:100480008C9185FFF2CF808185FFEDCFCE010E9458
:10049000BE01E9CFDF91CF910895DC0180E061508A
:1004A00090F09D919827E92FEF70F0E0E859FF4F09
:1004B0002491E92FE295EF70F0E0E858FF4FE491C6
:1004C000822F8E27ECCF0895FC01138615861486A3
:1004D0001286118610861782168215821482138264
:1004E0000895DC012C911196ED91FC91F894818195
:1004F000822B81839281322F30959323928387E0E0
:1005000090E00197F1F781818323818383E290E07A
:100510000197F1F790817894EFECF0E03197F1F7E3
:10052000922381E009F480E00895FC01908101802C
:10053000F281E02D292F209560FF14C0F89482816C
:10054000822382838181892B8183A3E2B0E011978A
:10055000F1F78281982B9283789487ED90E0019750
:10056000F1F70895F8948281822382838181892B17
:100570008183AFEFB0E01197F1F78281982B9283DE
:1005800078948FE090E0EBCFDF92EF92FF920F93A1
:100590001F93CF93DF93EC01D62EE42E08E010E0FA
:1005A000FF24F39461E08D2D8F2109F460E0CE01EA
:1005B0000E949502FF0C01501109A1F7E11010C033
:1005C000F894E981FA8191818881809589238183DA
:1005D000E981FA8192818881809589238283789448
:1005E000DF91CF911F910F91FF90EF90DF900895D1
:1005F000EF92FF920F931F93CF93DF938C017B01B8
:1006000040E065E50E94C402E70188E0E80EF11CC5
:10061000699140E0C8010E94C402CE15DF05C1F710
:10062000DF91CF911F910F91FF90EF900895FC0102
:1006300090810180F281E02DF8948181292F20950D
:100640008223818378943DE743E050E0315029F1E3
:10065000DA011197F1F780818923C1F3F89482813F
:10066000822382838181892B81837894ABE7B7E0F1
:100670001197F1F7F894818182238183A3E1B1E09E
:100680001197F1F78081982381E009F080E0789458
:10069000E3E6F6E03197F1F7089580E008956F9270
:1006A0007F928F929F92AF92BF92CF92DF92EF9202
:1006B000FF920F931F93CF93DF938C01EB018091F7
:1006C0002104909122040E941703882309F43FC05B
:1006D000B80180912104909122040E94F80240E028
:1006E0006EEB80912104909122040E94C4027E014D
:1006F0006E0189E0C80ED11C8E01A0902104B0903B
:10070000220488E0882E912C712C66246394C50104
:100710000E94710281117628660CE1E08E1A910820
:10072000B1F7F80171928F01CE16DF0631F7809193
:100730002104909122040E941703813041F4F701B3
:1007400081917F01811105C0E017F107C1F790E0A9
:1007500008C068E0CE010E944D0291E02885281370
:10076000F6CF892FDF91CF911F910F91FF90EF90DE
:10077000DF90CF90BF90AF909F908F907F906F90C1
:1007800008950F931F93CF93DF93CDB7DEB72997CB
:100790000FB6F894DEBF0FBECDBF8C01BE016F5FF8
:1007A0007F4F0E944F03882361F08D81F801908173
:1007B0009B3311F487FD0BC08F3359F020F48F3138
:1007C000A1F080E007C08F3591F08F37D1F78CE032
:1007D00001C08AE029960FB6F894DEBF0FBECDBFE8
:1007E000DF91CF911F910F91089589E0F3CF8BE0B6
:1007F000F1CFFC0101900020E9F73197AF01481BD0
:10080000590BBC018BE793E00C94400188E191E027
:100810000C94F9038F929F92AF92BF920F931F9304
:10082000CF93DF93CDB7DEB7A1970FB6F894DEBFB5
:100830000FBECDBF19A2423008F44AE08E010F5D11
:100840001F4F842E912CB12CA12CA50194010E9444
:10085000480BE62FB901CA01EA30F4F4E05DD80193
:10086000EE938D01232B242B252B79F790E080E04C
:10087000109719F0CD010E94F903A1960FB6F894D4
:10088000DEBF0FBECDBFDF91CF911F910F91BF9003
:10089000AF909F908F900895E95CE1CFCF92DF9267
:1008A000EF92FF92CF93DF936B017C016DE28BE7B8
:1008B00093E00E94E001EC0166277727CB016C19D9
:1008C0007D098E099F094AE00E940A048C0F9D1F32
:1008D000DF91CF91FF90EF90DF90CF900895CF936D
:1008E000DF930E94F903EC010E9406048C0F9D1F08
:1008F000DF91CF9108950C94F903BF92CF92DF92CC
:10090000EF92FF920F931F93CF93DF93EC01B62EDC
:10091000C72E8D85811105C0CE010E94170381115C
:100920000EC01B861D861C8680E0DF91CF911F9133
:100930000F91FF90EF90DF90CF90BF90089540E02F
:1009400060EFCE010E94C40201E0E12CD12C11E045
:10095000CE010E947102F82ECE010E94710291E038
:10096000F91218C0813099F51134D8F2DB86D11014
:1009700002C081E08D878B81882399F22396EB2D2D
:10098000FC2DCF01089629912193E817F907D9F793
:1009900081E0CBCFEE2DF0E0F8120FC08B85181759
:1009A000A0F4DE01AE0FBF1F13968C91802379F463
:1009B000F12C193008F41C87D12EEC0FFD1F838118
:1009C000902F9095892383830AC08113F1CFFE0174
:1009D000EE0DF11D8381802B8383FF24F3946F2D13
:1009E000CE010E9495021F5F000F11F4E39401E015
:1009F00087E08E1508F0ACCFB7CFFF920F931F930F
:100A0000CF93DF938C01F62E8091210490912204E4
:100A10000E946402C0E0B8018091210490912204F8
:100A20000E947D04D82F882329F0FC1629F0CF5F7F
:100A3000FC1688F7D0E008C067E0C8010E944D02AC
:100A4000F80197818913F3CF8D2FDF91CF911F91FB
:100A50000F91FF900895BC01990F880B990B97FD9A
:100A60000C944E044AE00C940A041F920F920FB6A5
:100A70000F9211242F933F938F939F93AF93BF9324
:100A80008091730390917403A0917503B0917603E4
:100A90003091720323E0230F2D3758F50196A11DE5
:100AA000B11D209372038093730390937403A093FA
:100AB0007503B09376038091770390917803A091AA
:100AC0007903B0917A030196A11DB11D809377033C
:100AD00090937803A0937903B0937A03BF91AF9179
:100AE0009F918F913F912F910F900FBE0F901F906C
:100AF000189526E8230F0296A11DB11DD2CF1F9293
:100B00000F920FB60F9211242F933F934F935F9341
:100B10006F937F938F939F93AF93BF93EF93FF93C5
:100B20008BE793E00E94BE01FF91EF91BF91AF91DF
:100B30009F918F917F916F915F914F913F912F91F5
:100B40000F900FBE0F901F9018951F920F920FB627
:100B50000F9211242F938F939F93EF93FF93E09124
:100B60008B03F0918C038081E0919103F0919203CB
:100B700082FD1BC09081809194038F5F8F732091C1
:100B80009503821741F0E0919403F0E0E558FC4FA3
:100B9000958F80939403FF91EF919F918F912F9167
:100BA0000F900FBE0F901F9018958081F4CFCF93B8
:100BB000DF9310927E0310927D0388EE93E0A0E015
:100BC000B0E080937F0390938003A0938103B09360
:100BD00082038AE091E090937C0380937B0385EC11
:100BE00090E0909388038093870384EC90E0909347
:100BF0008A038093890380EC90E090938C03809328
:100C00008B0381EC90E090938E0380938D0382ECB4
:100C100090E09093900380938F0386EC90E0909304
:100C20009203809391031092940310929503109273
:100C300096031092970340ED50E0FA0164918CEB1B
:100C400090E0FC0124912223C1F030E0220F331FF9
:100C5000F901EA55FF4FA591B491F901E456FF4F10
:100C6000C591D4917FB7F8943C91262F20953223DB
:100C70003C933881232328837FBFFA01449140931A
:100C80002F04FC018491E82FF0E0EE0FFF1FE055E8
:100C9000FF4F8591949190933104809330048FE2BB
:100CA00094E00E94640210922E0410922D0410927F
:100CB00019048FE294E0909322048093210410920F
:100CC0001F04109220041092180489E080931B04E2
:100CD00081E080931C0480931D0480931E04DF91A7
:100CE000CF910895CF93DF93CDB7DEB761970FB65D
:100CF000F894DEBF0FBECDBF789484B5826084BD0A
:100D000084B5816084BD85B5826085BD85B581600F
:100D100085BD80916E00816080936E00109281008D
:100D20008091810082608093810080918100816048
:100D30008093810080918000816080938000809109
:100D4000B10084608093B1008091B0008160809395
:100D5000B00080917A00846080937A0080917A005C
:100D6000826080937A0080917A00816080937A001B
:100D700080917A00806880937A001092C100E0919F
:100D80008B03F0918C0382E08083E0918703F091E4
:100D900088031082E0918903F0918A0380E18083C7
:100DA00010929303E0918F03F091900386E080838B
:100DB000E0918D03F0918E03808180618083E091CA
:100DC0008D03F0918E03808188608083E0918D0394
:100DD000F0918E03808180688083E0918D03F09193
:100DE0008E0380818F7D80838BE191E00E946F0470
:100DF0008BE791E00E946F0487E491E00E946F040A
:100E00000E9406048EE691E00E946F040E94060490
:100E100010E000E0BE016F5F7F4F8FE294E00E9420
:100E20007D04882309F4EFC087E791E00E946F04F6
:100E30000F5F602F70E090E080E04AE00E940A04BB
:100E40008FE393E00E947B0489818232C9F088326B
:100E5000A1F08031C1F487EA91E00E946F0467E05D
:100E6000CE0101960E944D029885891709F481C030
:100E70008FE292E00E946F04CDCF85ED91E0EDCF3F
:100E80008EEE91E0EACF86E092E00E946F048DEC56
:100E900092E00E946F0480912104909122040E94AC
:100EA000640210921F041092200411E0BE016F5FD3
:100EB0007F4F80912104909122040E947D04882319
:100EC00009F4B9C067E0CE0101960E944D029885F1
:100ED0008913ECCF80911F048F5F80931F04898159
:100EE000883231F008F09EC0803111F08232F1F684
:100EF000809120048F5F80932004809118048111D9
:100F000028C080912104909122040E941703BE0101
:100F10006F5F7F4F80912104909122040E94F8021C
:100F200040E064EB80912104909122040E94C4026D
:100F300080912104909122040E947102082F8091D7
:100F40002104909122040E941703011102C0109302
:100F500018048981803109F46CC0CE0101960E9489
:100F6000C10390911B04981708F0A0CF80931B0435
:100F70009DCF85E592E00E946F049E012F5F3F4F59
:100F80007901690110E08EE692E00E947B04F6018F
:100F900081916F01803120F481E792E00E947B040F
:100FA000F6013197608170E090E080E040E10E94BE
:100FB0000A04173021F083E792E00E947B041F5F50
:100FC000183009F78AE191E00E946F0486E792E009
:100FD0000E946F0410E0F70161917F0170E090E0E2
:100FE00080E04AE00E940A04173021F080E992E094
:100FF0000E947B041F5F183071F78AE191E00E9424
:101000006F0411E007CF111104C086E092E00E9446
:101010006F040E94060484E992E00E946F040E941B
:10102000060435CF8B3309F463CF823409F03ECF09
:101030005FCF8CE096CF80911F0490E09093710376
:10104000809370038AEE92E00E947B04809170038B
:10105000909171030E942B0580EF92E00E946F0433
:1010600010E000E0BCE0EB2E8FE7D82E80917003FB
:1010700090917103081719070CF0F7C0602F88E6EC
:1010800093E00E94FD04882309F4EAC0809168037C
:10109000803109F474C0BE016F5F7F4F88E693E032
:1010A0000E944F03882309F46AC08D8190916803E0
:1010B0009B3311F487FD63C08F3709F460C0DD8274
:1010C00080912104909122040E94170368E673E046
:1010D00080912104909122040E94F80240E06EE485
:1010E00080912104909122040E94C40240E06B810F
:1010F00080912104909122040E94C40240E06C81FE
:1011000080912104909122040E94C402809168037E
:10111000803141F040E06D81809121049091220462
:101120000E94C402809121049091220420911E0407
:10113000222319F10E941703882309F168E673E05E
:1011400080912104909122040E94F8024091180499
:1011500068E480912104909122040E94C40280914D
:101160001804811145C064E170E080E090E00E94C5
:101170000D0180912104909122040E941703E092B6
:101180001B0480911F04823008F44EC0809121041A
:10119000909122040E946402F12C80911F04F816A1
:1011A00008F042C080911B048C30F1F1BE016F5FEA
:1011B0007F4F80912104909122040E947D04882316
:1011C000A9F067E0CE0101960E944D02988589132F
:1011D0000DC08981803131F1CE0101960E94C10399
:1011E00090911B04981710F480931B04F394D5CFAF
:1011F00080911904882329F060E080911A040E94EC
:101200009C0064E170E080E090E00E940D0180911C
:101210001904882309F4ADCF61E080911A040E947B
:101220009C00A7CF8CE0DCCF84E093E00E947B049D
:10123000C8010E942B058CE093E00E947B04809102
:101240006803803181F088E693E00E94C103682F33
:1012500070E090E080E04AE00E940A040E940604E8
:101260000F5F1F4F03CF8CE0F2CF8AE191E00E9425
:101270006F0460E271EA87E090E00E940D0100E0F7
:1012800010E087E293E00E947B048091210490911A
:1012900022040E94170340E06CEC8091210490919D
:1012A00022040E94C4024091180464E48091210445
:1012B000909122040E94C4028FB7F894C0907303E7
:1012C000D0907403E0907503F09076038FBF809107
:1012D0001C04882329F180911D04882309F45EC031
:1012E0008091180481115AC08091210490912204A8
:1012F0000E9471028130A1F02FB7F894809173039E
:1013000090917403A0917503B09176032FBF8C194F
:101310009D09AE09BF098E3E9240A105B10520F39B
:1013200082E493E00E946F04C12CD12C760180915D
:10133000700390917103C816D9060CF083C16C2D0F
:10134000CE010A960E94FD04811151C0812C912C7E
:10135000FEEFAF2EF2ECBF2E84E093E00E947B0400
:101360004AE0C701B6010E940A0487E493E00E94A4
:101370007B04A5019401C501B4010E94490D882395
:1013800009F4CEC08BE593E00E94F9030E940604A5
:101390002FEFC21AD20AE20AF20AC9CFE0911B0467
:1013A000E9508EEE92E0E33038F4F0E0EE0FFF1FEC
:1013B000E050FF4F808191816C01F12CE12C8091F4
:1013C0001904882329F060E080911A040E949C008F
:1013D000C701B6010E940D0180911904882309F408
:1013E0009FCF61E080911A040E949C0099CFBE01BA
:1013F0006F5F7F4FCE010A960E944F03882309F446
:10140000A5CF2A8160E070E0CB0127FF04C060E037
:1014100070E088EF9FEF3A8549803B33E9F54D81D5
:1014200047FF3AC040FC92CF512C712C612C53E005
:10143000440C551C661C771C5A95D1F75301420188
:1014400030EE832237E09322AA24BB24422E512C73
:10145000712C612CEBE0440C551C661C771CEA9542
:10146000D1F7482859286A287B28642975298629B4
:1014700097296138F4EE7F07FFEF8F079F070CF481
:1014800065CF0E94270C20E030E040E05CE30E9442
:10149000DC0C4B015C0160CF822E912C982C8824AF
:1014A000990C990C990CE8E04E9E20011124842897
:1014B0009528092C000CAA08BB08682979298A29D3
:1014C0009B293031B1F62885222399F24B015C012A
:1014D00083E0880C991CAA1CBB1C8A95D1F7F0E804
:1014E0008F22F7E0AF22BB2430E2831A9108A108D3
:1014F000B108622F70E08F81FB01E81BF109CF0179
:101500009695982F8827979587950E94340B072EDC
:10151000000C880B990B680D791D8A1D9B1DA9CFA6
:1015200024013501E89477F82FEF3FEF4FE75FE7AD
:10153000C301B2010E94490D81110DC02FEF3FEF91
:101540004FE75FE7C301B2010E94F10B18161CF4CC
:101550008FE593E019CF2FEF3FEF4FE75FE4C50131
:10156000B4010E94D70C18161CF483E693E00CCF4C
:101570002FEF3FEF4FE75FECC501B4010E94F10B85
:1015800087FDF3CF20E030E0A901C501B4010E943E
:10159000F10B87FF09C06DE28BE793E00E94E00149
:1015A000B7FAB094B7F8B0942AE037ED43EA5BE3BA
:1015B000C501B4010E94850B2B013C010E94F60B72
:1015C0004B015C010E94250C9B01AC01C301B201DF
:1015D0000E94840B2B013C014AE0C501B4010E942A
:1015E0000A046EE28BE793E00E94E00120E030E025
:1015F00040E251E4C301B2010E94DC0C2B013C012A
:101600000E94F60B4B01B12CA12C4AE0C501B4019C
:101610000E940A04C501B4010E94250C9B01AC0183
:10162000C301B2010E94840B20E030E040E251E4AB
:101630000E94DC0C0E94F60B90E080E04AE00E94E1
:101640000A04A4CE68EB7BE080E090E00E940D01EC
:101650000115110509F415CE0E94AA01882309F489
:1016600010CE0E9400000DCE97FB072E16F40094BA
:1016700007D077FD09D00E946A0B07FC05D03EF425
:10168000909581959F4F0895709561957F4F08952E
:10169000A1E21A2EAA1BBB1BFD010DC0AA1FBB1F76
:1016A000EE1FFF1FA217B307E407F50720F0A21BE8
:1016B000B30BE40BF50B661F771F881F991F1A9455
:1016C00069F760957095809590959B01AC01BD017F
:1016D000CF010895AA1BBB1B51E107C0AA1FBB1F66
:1016E000A617B70710F0A61BB70B881F991F5A95AE
:1016F000A9F780959095BC01CD010895EE0FFF1FCD
:101700000590F491E02D09945058BB27AA270E9418
:101710009C0B0C949D0C0E948F0C38F00E94960C30
:1017200020F039F49F3F19F426F40C948C0C0EF43D
:10173000E095E7FB0C94860CE92F0E94AE0C58F361
:10174000BA17620773078407950720F079F4A6F5A6
:101750000C94D00C0EF4E0950B2EBA2FA02D0B019B
:10176000B90190010C01CA01A0011124FF27591BE6
:1017700099F0593F50F4503E68F11A16F040A22FEC
:10178000232F342F4427585FF3CF4695379527955D
:10179000A795F0405395C9F77EF41F16BA0B620B5C
:1017A000730B840BBAF09150A1F0FF0FBB1F661FA3
:1017B000771F881FC2F70EC0BA0F621F731F841FE6
:1017C00048F4879577956795B795F7959E3F08F00C
:1017D000B0CF9395880F08F09927EE0F97958795CE
:1017E00008950E94620C08F481E008950E94B60CEE
:1017F00088F09F5798F0B92F9927B751B0F0E1F0D2
:10180000660F771F881F991F1AF0BA95C9F714C081
:10181000B13091F00E94D00CB1E008950C94D00C3E
:10182000672F782F8827B85F39F0B93FCCF38695BA
:1018300077956795B395D9F73EF490958095709517
:1018400061957F4F8F4F9F4F0895E89409C097FB94
:101850003EF490958095709561957F4F8F4F9F4F87
:101860009923A9F0F92F96E9BB279395F6958795CB
:1018700077956795B795F111F8CFFAF4BB0F11F48E
:1018800060FF1BC06F5F7F4F8F4F9F4F16C0882335
:1018900011F096E911C0772321F09EE8872F762F6B
:1018A00005C0662371F096E8862F70E060E02AF0AC
:1018B0009A95660F771F881FDAF7880F9695879598
:1018C00097F90895990F0008550FAA0BE0E8FEEF6D
:1018D00016161706E807F907C0F012161306E407F4
:1018E000F50798F0621B730B840B950B39F40A26ED
:1018F00061F0232B242B252B21F408950A2609F4CB
:10190000A140A6958FEF811D811D089597F99F67CE
:1019100080E870E060E008959FEF80EC0895002477
:101920000A941616170618060906089500240A9444
:1019300012161306140605060895092E0394000CCA
:1019400011F4882352F0BB0F40F4BF2B11F460FF59
:1019500004C06F5F7F4F8F4F9F4F089557FD905882
:10196000440F551F59F05F3F71F04795880F97FB63
:10197000991F61F09F3F79F087950895121613061D
:101980001406551FF2CF4695F1DF08C0161617064C
:101990001806991FF1CF8695710561050894089581
:1019A000E894BB2766277727CB0197F908950E9413
:1019B000620C08F48FEF08950E94EF0C0C949D0CBC
:1019C0000E948F0C38F00E94960C20F0952311F0A5
:1019D0000C94860C0C948C0C11240C94D10C0E9449
:1019E000AE0C70F3959FC1F3950F50E0551F629FA9
:1019F000F001729FBB27F00DB11D639FAA27F00D68
:101A0000B11DAA1F649F6627B00DA11D661F829F8E
:101A10002227B00DA11D621F739FB00DA11D621F73
:101A2000839FA00D611D221F749F3327A00D611D90
:101A3000231F849F600D211D822F762F6A2F112472
:101A40009F5750409AF0F1F088234AF0EE0FFF1FA5
:101A5000BB1F661F771F881F91505040A9F79E3FFC
:101A6000510580F00C94860C0C94D10C5F3FE4F38C
:101A7000983ED4F3869577956795B795F795E79552
:101A80009F5FC1F7FE2B880F911D9695879597F95B
:101A900008950E94620C880B990B0895F894FFCF6B
:101AA0005E00BC00770100000000E00140016D0114
:101AB0002D029E017C0190010D0A00416266726157
:101AC0006765206D656872657265722044616C6C33
:101AD00061732054656D7065726174757220536511
:101AE0006E736F72656E0044533138787820312DF3
:101AF000576972652054656D706572617475727393
:101B0000656E736F72205363616E6E6572005375FC
:101B10006368652E2E2E002D2D2D2D2D2D2D2D2D76
:101B20002D2D2D2D2D2D2D2D2D2D2D2D2D2D2D2DE5
:101B30002D2D2D2D2D2D2D2D2D2D2D2D2D2D2D2DD5
:101B40002D2D2D2D2D2D0053656E736F7220697311
:101B5000742065696E2044533138533230206F64ED
:101B600065722061656C746572657220445331380A
:101B700032303A200053656E736F7220697374209F
:101B800065696E20445331384232303A2000536543
:101B90006E736F72206973742065696E20445331CF
:101BA0003832323A20004B65696E656E2067756584
:101BB0006C746967656E20445331387878205365BA
:101BC0006E736F7220676566756E64656E21004383
:101BD0005243205072756566756E67206E69636842
:101BE000742062657374616E64656E212046656859
:101BF0006C657221004845782041757367616265A4
:101C00002064657220416472657373653A003078B0
:101C10000030002C2000416472657373652061758B
:101C20007320616C6C656E20382042797465730096
:101C3000202D2000537563686520616267657363BA
:101C4000686C6F7373656E212044727565636B6594
:101C500020526573657420546173746572206675D3
:101C60006572204E657573746172742E00537563CE
:101C700068652054656D7065726174757220536576
:101C80006E736F72656E2E2E2E00486162652000A5
:101C90002053656E736F72656E20676566756E643E
:101CA000656E2E0053656E736F722000206861743C
:101CB0002065696E652067656E617569676B65692A
:101CC0007420766F6E2000416266726167652064E1
:101CD00065722054656D706572617475722E2E2E5A
:101CE0002000444F4E450020686174206772616493
:101CF0002043656C736975733A20006E616E0069EC
:081D00006E66006F76660000BC
:00000001FF
