:100000000C94F0000C9418010C9418010C94180135
:100010000C9418010C9418010C9418010C941801FC
:100020000C9418010C9418010C9418010C941801EC
:100030000C9418010C9418010C9418010C941801DC
:100040000C946C190C9418010C94DC190C94B619CE
:100050000C9418010C9418010C9418010C941801BC
:100060000C9418010C94180100407A10F35A00A067
:10007000724E18090010A5D4E80000E87648170071
:1000800000E40B54020000CA9A3B000000E1F505B1
:10009000000080969800000040420F000000A086FB
:1000A00001000000102700000000E803000000002D
:1000B0006400000000000A000000000001000000D1
:1000C00000002C76D888DC674F0823DFC1DFAE59EB
:1000D000E1B1B796E5E3E453C63AE651997696E87E
:1000E000E6C28426EB898C9B62ED407C6FFCEFBC02
:1000F0009C9F40F2BAA56FA5F490055A2AF75C932D
:100100006B6CF9676DC11BFCE0E40D47FEF520E662
:10011000B500D0ED902E0300943577050080841E45
:10012000080000204E0A000000C80C333333330FA0
:10013000986E12831141EF8D2114893BE65516CF3D
:10014000FEE6DB18D1844B381BF77C1D901DA4BB49
:10015000E424203284725E228100C9F124ECA1E5FE
:100160003D27000000080002010000030407000012
:10017000000000000000005EBCE2613FDD83C29C25
:100180007E20A3FD1F41009D23BE46DB65F88C1138
:10019000AF32CA57E97400000000250028002B0088
:1001A00000000000240027002A00000000002300B7
:1001B00026002900040404040404040402020202C8
:1001C000020203030303030301020408102040801A
:1001D0000102040810200102040810200E1AE61F74
:1001E00011241FBECFEFD8E0DEBFCDBF12E0A0E0EC
:1001F000B1E0ECE6FCE402C005900D92AA39B1072B
:10020000D9F724E0AAE9B2E001C01D92AC39B207E7
:10021000E1F710E0CFEED0E004C02197FE010E948C
:10022000E223CE3ED107C9F70E942E1B0C9429264B
:100230000C940000CF93DF93EEE4F4E0EC018A81AC
:100240009B81AC81BD81858F968FA78FB0A38BE5F5
:1002500097E094A383A312A211A2CF01DF91CF91C3
:1002600008958CBD9DBD0895CF93DF93EC01FA01F5
:100270003296E60FF71FDC019D012C1B3D0BCF01D1
:10028000861B970B4D91442311F04193F5CFAC01A0
:10029000421B530B640F751FFB0132973083615073
:1002A0007109FB012083DF91CF9108958091520461
:1002B00090915304009711F480E02FC0DC01ED9180
:1002C000FC910688F789E02D0995209175043091FD
:1002D000760481111FC0232B79F78DEF9FEF909348
:1002E0007604809375048091520490915304DC014C
:1002F000ED91FC910680F781E02D099580915204E3
:1003000090915304DC01ED91FC910488F589E02D76
:100310000995D2CF81E0232B79F60895FC01818DD8
:10032000928D0895089590E0FC01EE59FE4F2491BE
:10033000FC01E853FE4F3491FC01EC54FE4FE49174
:10034000EE23C9F0222339F0233001F1A8F4213043
:1003500019F1223029F1F0E0EE0FFF1FEA56FE4FAF
:10036000A591B4918FB7F894EC91611126C03095A6
:100370003E233C938FBF08952730A9F02830C9F061
:10038000243049F7809180008F7D03C080918000E8
:100390008F7780938000DFCF84B58F7784BDDBCFEC
:1003A00084B58F7DFBCF8091B0008F778093B000B4
:1003B000D2CF8091B0008F7DF9CF3E2BDACFCF9393
:1003C000DF9390E0FC01E853FE4F24918C549E4F44
:1003D000FC0184918823D1F090E0880F991FFC01E3
:1003E000E056FE4FA591B491FC01EA56FE4FC5912F
:1003F000D49161110EC09FB7F8948C91E22FE095D3
:100400008E238C932881E223E8839FBFDF91CF91D5
:1004100008958FB7F894EC91E22BEC938FBFF6CF51
:100420003FB7F8948091B1029091B202A091B302CB
:10043000B091B40226B5A89B05C02F3F19F00196D4
:10044000A11DB11D3FBFBA2FA92F982F8827BC012E
:10045000CD01620F711D811D911D42E0660F771F56
:10046000881F991F4A95D1F708958F929F92AF9256
:10047000BF92CF92DF92EF92FF926B017C010E94BC
:1004800010024B015C01C114D104E104F104B9F084
:100490000E941002681979098A099B09683E734015
:1004A0008105910580F321E0C21AD108E108F10825
:1004B00088EE880E83E0981EA11CB11CE4CFFF904B
:1004C000EF90DF90CF90BF90AF909F908F90089566
:1004D0002FB7F8946091AD027091AE028091AF0297
:1004E0009091B0022FBF0895EF92FF920F931F9348
:1004F000CF93DF9300D000D0CDB7DEB7FA0120E074
:100500008E010F5F1F4F9E2F9F77EE0FEF2FEE1F75
:10051000FF0BF195309709F09068D801A20FB11D3B
:100520009C932F5F309779F730E0FB01E21BF30BD0
:100530008483FB01E21BF30B3596D801CD01801BB0
:10054000910B821793071CF48D918193F7CF2F5F46
:100550003F4F80915204909153048901040F151F5D
:10056000621B730B6B5F7F4FDC01ED91FC9102808E
:10057000F381E02DA80109957C010E946802609337
:100580005E0470935F04809360049093610481E043
:100590000E151F0509F080E00F900F900F900F903F
:1005A000DF91CF911F910F91FF90EF9008958F925F
:1005B0009F92AF92BF92CF92DF92EF92FF92CF9332
:1005C000DF93EC010E9468024B015C0180915204B0
:1005D00090915304DC01ED91FC910084F185E02DB4
:1005E0000995892BB9F40E9468026B017C01C81837
:1005F000D908EA08FB0820915A0430915B04A8EE60
:10060000B3E00E94AB23C616D706E806F906F0F25F
:1006100080E00DC08091520490915304DC01ED9173
:10062000FC910284F385E02D0995888381E0DF91B8
:10063000CF91FF90EF90DF90CF90BF90AF909F90C1
:100640008F9008952F923F924F925F926F927F9278
:100650008F929F92AF92BF92CF92DF92EF92FF92D2
:100660000F931F93CF93DF93CDB7DEB72A970FB6C3
:10067000F894DEBF0FBECDBF1C0180915404909151
:1006800055040E94D70281111CC060E070E0CB01CC
:100690002A960FB6F894DEBF0FBECDBFDF91CF9183
:1006A0001F910F91FF90EF90DF90CF90BF90AF9090
:1006B0009F908F907F906F905F904F903F902F9082
:1006C0000895E0915404F0915504D0801982EE24ED
:1006D000E394F12C812C912C5401412C512C3201AA
:1006E0004394CE0101960E94D702882371F28701BC
:1006F0000F5F1F4F8981E0915404F0915504EE0D76
:10070000FF1D8083E981AE2FAF77B0E0A301920196
:100710000E944723860E971EA81EB91E37E0440C80
:10072000551C661C771C3A95D1F7E7FD3FC0BD2DDF
:10073000B07FBE838FEF800FF1018083B03309F06B
:100740004CC08091540490915504800F911F0E94D9
:10075000D702882309F499CF20915404309155048D
:10076000C7010296820F931F0E94D702882309F4C3
:100770008CCF0E5F1F4FE0915404F0915504D101CE
:100780008C91DF01A80FB11D11968C91119790E00B
:10079000982F882712962C91820F911D208121FD80
:1007A0000296F2E0E0E030E020E01DC07801053084
:1007B000110509F096CF8FEF9FEF90937604809309
:1007C00075048091520490915304DC01ED91FC91E9
:1007D0000488F589E02D099558CFF0E0E0E030E09D
:1007E00020E090E080E070E060E0CF2EDE2EE32E8F
:1007F000F22E28013B014C185D086E087F084A82E2
:100800005B826C827D822C01712C612C4F82588618
:1008100069867A864A805B806C807D804C0C5D1C8A
:100820006E1C7F1CC814D904EA04FB0408F046C0FF
:10083000CE0101960E94D702882309F426CF809129
:10084000730490917404009711F12E812033F9F410
:10085000D1012C914EEF5FEF6FEF7FEF421B5109FB
:1008600061097109440E551E661E771E2F81388559
:1008700049855A85241535054605570540F4DC01A0
:10088000ED91FC910190F081E02D698109958091B5
:100890005604909157040817190750F48981E09184
:1008A0005404F0915504E00FF11F80830F5F1F4F38
:1008B000BFEFCB1ADB0AEB0AFB0AACCF80917304C3
:1008C00090917404892B69F4809156049091570497
:1008D000B0E0A0E084159505A605B70510F410E07A
:1008E00000E0B80190E080E0D3CEAF92BF92CF920B
:1008F000DF92EF92FF920F931F93CF93DF936C01E0
:100900007B018B01040F151FEB015E01AE18BF08C0
:10091000C017D10759F06991D601ED91FC91019072
:10092000F081E02DC6010995892B79F7C501DF918A
:10093000CF911F910F91FF90EF90DF90CF90BF90DC
:10094000AF900895FC01538D448D252F30E0842F06
:1009500090E0821B930B541710F0CF9608950197E7
:100960000895FC01918D828D981761F0A28DAE0FD4
:10097000BF2FB11D5D968C91928D9F5F9F73928F5B
:1009800090E008958FEF9FEF0895FC01918D828D87
:10099000981731F0828DE80FF11D858D90E0089554
:1009A0008FEF9FEF0895FC01918D228D892F90E0AC
:1009B000805C9F4F821B91098F739927089580E572
:1009C00093E00E94D30421E0892B09F420E0822FD8
:1009D000089580E090E0892B29F00E94DF048111C6
:1009E0000C9400000895FC01A48DA80FB92FB11D2F
:1009F000A35ABF4F2C91848D90E001968F73992755
:100A0000848FA689B7892C93A089B1898C91837032
:100A100080648C93938D848D981306C00288F3892B
:100A2000E02D80818F7D80830895EF92FF920F9358
:100A30001F93CF93DF93EC0181E0888F9B8D8C8D8A
:100A400098131AC0E889F989808185FF15C09FB77E
:100A5000F894EE89FF896083E889F9898081837041
:100A6000806480839FBF81E090E0DF91CF911F91F0
:100A70000F91FF90EF900895F62E0B8D10E00F5F11
:100A80001F4F0F731127E02E8C8D8E110CC00FB6E7
:100A900007FCFACFE889F989808185FFF5CFCE017F
:100AA0000E94F304F1CFEB8DEC0FFD2FF11DE35A03
:100AB000FF4FF0829FB7F8940B8FEA89FB89808102
:100AC0008062CFCFCF93DF93EC01888D8823B9F07C
:100AD000AA89BB89E889F9898C9185FD03C0808149
:100AE00086FD0DC00FB607FCF7CF8C9185FFF2CFC6
:100AF000808185FFEDCFCE010E94F304E9CFDF9125
:100B0000CF910895FC0120812EBD9B012150310918
:100B100041F051810DB407FEFDCF4EB55EBD41934E
:100B2000F5CF61507109860F971F0DB407FEFDCFF9
:100B30002EB5FC0120830895E0914A03F0914B0308
:100B4000808190914903892B80830895E0914A0325
:100B5000F0914B0390818091490380958923808394
:100B600008958EBD00000DB407FEFDCF8EB508952B
:100B7000AF92BF92CF92DF92EF92FF920F931F93AB
:100B8000CF93DF93CDB7DEB728970FB6F894DEBFCB
:100B90000FBECDBF8C017B016A0180914D03833371
:100BA000E1F45801A40EB51EA016B10609F46FC0F9
:100BB0000E94A60580EF0E94B105812F0E94B10519
:100BC000802F0E94B1050F5F1F4FF70181917F01B8
:100BD0000E94B1050E949C05E7CF5B01A40EB51EE3
:100BE0008433C1F40E94A60519830A838D2D806881
:100BF0008B83CC8264E070E0CE0101960E94820576
:100C0000AE14BF0409F441C0F70181917F010E9435
:100C1000B105F6CF0E94A6050F3F110509F028F493
:100C200019820A8384E08B830CC017FD17C01982D8
:100C30000A8333E0169507953A95E1F7007E0C603C
:100C40000B8386E0C816D104A0F5F701DE011496E7
:100C5000EA15FB0599F081918D93FACFC80126E042
:100C6000969587952A95E1F7807E19830A83011569
:100C7000104C10F48461D7CF8C61D5CFB6016D5F75
:100C80007F4FCE0101960E9482050E949C05C601FD
:100C900028960FB6F894DEBF0FBECDBFDF91CF917F
:100CA0001F910F91FF90EF90DF90CF90BF90AF908A
:100CB000089563E070E0CE0101960E948205F7017D
:100CC00081917F010E94B105AE14BF04C1F7DDCF51
:100CD000CF93DF931F92CDB7DEB7898341E050E019
:100CE000BE016F5F7F4F90E080E00E94B8050F90DB
:100CF000DF91CF91089590E020914D03233339F493
:100D00000C96982F990F990F990F80E008954896A7
:100D1000F8CFDA01E0914E03F0E0FE2FEE27E60F68
:100D2000F71F90E0982F8827A901BD018E0F9F1F04
:100D30000C94B805CF93DF9300D0CDB7DEB779839D
:100D40006A8322E030E0AE014F5F5F4F60E170E008
:100D50000E9489060F900F90DF91CF910895CF9355
:100D6000DF9300D0CDB7DEB779836A8322E030E02D
:100D7000AE014F5F5F4F64E070E00E9489060F9004
:100D80000F90DF91CF910895CF93DF931F92CDB74E
:100D9000DEB720914E0330E0322F2227260F371F77
:100DA00090E0982F8827498341E050E0BE016F5FB3
:100DB0007F4F820F931F0E94B8050F90DF91CF9154
:100DC0000895CF93DF931F92CDB7DEB76983DC011F
:100DD000ED91FC910280F381E02D41E050E0BE01F5
:100DE0006F5F7F4F09950F90DF91CF910895FC01C0
:100DF0009485FB018485981303C081E0943008F04A
:100E000080E00895CF93DF931F92CDB7DEB769835B
:100E1000DC01ED91FC910280F381E02D41E050E096
:100E2000BE016F5F7F4F09950F90DF91CF910895BD
:100E30000895FF920F931F93CF93DF93EB01FC0173
:100E4000178A168A2A81211109C02B81211106C017
:100E50002C81211103C02D81222301F1411551055F
:100E6000E9F08A01FC01F08C80E591E00E943101FB
:100E7000AE014E5F5F4F24E030E06CE070E08F2DFC
:100E80000E948906B8018F2D0E949A0681E090E0A9
:100E9000DF91CF911F910F91FF90089580E0F7CFE0
:100EA000FC01848595850895FC01848995890895C0
:100EB0002FEA31E0FC0131832083FB014089518915
:100EC00062897389FC014283538364837583089527
:100ED000DC01ED91FC91048CF58DE02D0994EF92ED
:100EE000FF920F931F93CF93DF93EC018B017A0155
:100EF0000E946802688B798B8A8B9B8B8C819D8189
:100F0000DC01ED91FC910280F381E02DA701B80195
:100F1000DF91CF911F910F91FF90EF9009941F9354
:100F2000CF93DF93EC01162F0E946802688B798BB8
:100F30008A8B9B8B8C819D81DC01ED91FC910190D2
:100F4000F081E02D612FDF91CF911F9109940895D9
:100F500090E080E008958F929F92AF92BF92CF92DF
:100F6000DF92EF92FF920F931F93CF93DF93DC01F9
:100F700028E030E081E088248A94912C0FE010E092
:100F800053E2E52EF12C77EDC72ED12C9C911196D2
:100F9000ED91FC911297792F7095562F582309F4F3
:100FA00038C0F8945281572352835181592B518371
:100FB000E7012197F1F75281952B92837894F601FE
:100FC0003197F1F7880F2150310901F7411114C011
:100FD000F8941196ED91FC91129791818C918095E6
:100FE000892381831196ED91FC91129792818C91C6
:100FF0008095892382837894DF91CF911F910F91FF
:10100000FF90EF90DF90CF90BF90AF909F908F9028
:101010000895F8945281572352835181592B51835B
:10102000E4012197F1F75281952B92837894F8018E
:10103000C7CFDC012C911196ED91FC91F894818140
:10104000822B81839281322F30959323928387E084
:1010500090E00197F1F781818323818383E290E01F
:101060000197F1F790817894EFECF0E03197F1F788
:10107000922381E009F480E00895FC0190810180D1
:10108000F281E02DF8948181292F2095822381839C
:1010900078943DE743E050E0315029F1DA011197AF
:1010A000F1F780818923C1F3F894828182238283BE
:1010B0008181892B81837894ABE7B7E01197F1F7B1
:1010C000F894818182238183A3E1B1E01197F1F744
:1010D0008081982381E009F080E07894E3E6F6E0EF
:1010E0003197F1F7089580E008954F925F926F92E3
:1010F0007F928F929F92AF92BF92CF92DF92EF92A8
:10110000FF920F931F93CF93DF93CDB7DEB729974D
:101110000FB6F894DEBF0FBECDBF6C0180913204D4
:10112000909133040E943D08882309F451C0E09057
:101130003204F090330440E065E5C7010E94AB073C
:101140008601560128E0A20EB11CD8016D918D01D7
:1011500040E0C7010E94AB070A151B05B1F740E04C
:101160006EEB80913204909133040E94AB078E01A4
:101170000F5F1F4F4E01BAE08B0E911C78016090FB
:10118000320470903304A8E0AA2EB12C512C4424D0
:101190004394C3010E94190881115428440CE1E0D2
:1011A000AE1AB108B1F7D7015D927D018A169B0690
:1011B00031F780913204909133040E943D088130D0
:1011C00039F4F8018191811108C0EE15FF05D1F7BE
:1011D00060E070E08EEF92EC64C029E0E0E0215026
:1011E00099F0D8018D918D018E27E82FEF70F0E0F6
:1011F000EA58FE4F9491E82FE295EF70F0E0EA573D
:10120000FE4FE491E927EBCF89858E13E1CF2A8148
:1012100060E070E0CB0127FF04C060E070E088EF81
:101220009FEFF6014081C9804B3309F051C03D81E9
:1012300037FF4EC0C0FCCCCFD12CF12CE12CE3E029
:10124000CC0CDD1CEE1CFF1CEA95D1F746015701C2
:10125000F0EE8F22F7E09F22AA24BB24C22ED12CCD
:10126000F12CE12CFBE0CC0CDD1CEE1CFF1CFA95F4
:10127000D1F7C828D928EA28FB286C297D298E298E
:101280009F29613854EE75075FEF850795070CF4C9
:101290009FCF0E944E2220E030E040E05CE30E94BD
:1012A000892229960FB6F894DEBF0FBECDBFDF911D
:1012B000CF911F910F91FF90EF90DF90CF90BF9053
:1012C000AF909F908F907F906F905F904F90089518
:1012D000022F10E0102F0027110F110F110F28E01F
:1012E000C29E600111240C291D29012E000C220B25
:1012F000330B602B712B822B932B403111F64885D9
:10130000442309F4BECF8B019C0183E0000F111F21
:10131000221F331F8A95D1F7007827703327005298
:10132000110921093109642F70E08F81AB01481B3D
:101330005109CA019695982F8827979587950E94FD
:10134000BA23072E000C880B990B600F711F821FA8
:10135000931F97CFFC01768765870895DC01ED9197
:10136000FC9102A0F3A1E02D099591E08927089551
:10137000862F089581E08627089521E0FC01848569
:10138000883008F020E0822F089508950F931F936E
:10139000CF93DF93609156047091570481ED92E0F2
:1013A0000E940A20EC010E9456018823F1F100916D
:1013B000560410915704B8018DE093E00E940A2072
:1013C0009E01295F3F4F820F931F0817190768F18D
:1013D000609154047091550445E050E08DE093E035
:1013E0000E943401E1EDF2E08C01015D1240A801A0
:1013F0004E0F5F1F60915404709155049F01215D51
:1014000032402C173D0730F42191640F751FDB012A
:101410002C93EDCF2597AE01480F591F80E3DF9144
:10142000CF911F910F910C94740280E0DF91CF91C6
:101430001F910F9108950F931F93CF93DF93EC01AA
:1014400088819981009759F02A813B8126173707B7
:1014500030F081E0DF91CF911F910F9108958B01C2
:101460006F5F7F4F0E944325009759F099838883CF
:101470001B830A832C813D81232B59F7FC011082A9
:10148000E8CF80E0E7CFFB0101900020E9F731973A
:10149000AF01461B570BDC01ED91FC910280F381FB
:1014A000E02D09948F929F92AF92BF92EF92FF929C
:1014B0000F931F93CF93DF93CDB7DEB7A1970FB6EE
:1014C000F894DEBF0FBECDBF7C01FA01CB0119A29B
:1014D000223008F42AE08E010F5D1F4F822E912CDE
:1014E000B12CA12CBF01A50194010E948923F9010F
:1014F000CA016A300CF5605DD8016E938D01232B13
:10150000242B252B79F790E080E0109721F0BD0186
:10151000C7010E94430AA1960FB6F894DEBF0FBE22
:10152000CDBFDF91CF911F910F91FF90EF90BF90B2
:10153000AF909F908F900895695CDECFCF92DF923D
:10154000EF92FF92CF93DF936B017C016DE280E518
:1015500093E00E941505EC0144275527BA014C1968
:101560005D096E097F092AE080E593E00E94520A36
:101570008C0F9D1FDF91CF91FF90EF90DF90CF9068
:101580000895CF93DF93AC01990F660B770B77FF2C
:1015900010C0CB01BA010E949E0AEC0161EB71E020
:1015A00080E593E00E94430A8C0F9D1FDF91CF914D
:1015B00008952AE080E593E00E94520AEECF8F92D0
:1015C0009F92AF92BF92CF92DF92EF92FF920F93D2
:1015D0001F93CF93DF937C01EB016C0182E0C80E77
:1015E000D11C4701E5E08E0E911C10E000E0F601F1
:1015F00041916F0150E070E060E02AE0CE010E946E
:10160000520A5C01E881F9810190F081E02D6EE2DF
:10161000CE0109958A0D9B1D080F191FC814D90406
:1016200031F7F701458150E070E060E02AE0CE013B
:101630000E94520A800F911FDF91CF911F910F914D
:10164000FF90EF90DF90CF90BF90AF909F908F90E2
:101650000895AF92BF92CF92DF92EF92FF920F93D5
:101660001F93CF93DF9300D000D0CDB7DEB78C01AE
:101670006B017A0180914D038333E9F45B016801CA
:10168000C40ED51EC016D106A9F10E94A6058FE092
:101690000E94B105812F0E94B105802F0E94B105E3
:1016A0000F5F1F4F80E00E94B105F50181935F013C
:1016B0000E949C05E7CF843369F50E94A605198333
:1016C0000A838F2D8F778B83EC8264E070E0CE01EC
:1016D00001960E948205A70170E060E0C6010E94A9
:1016E0001B26E114F10421F0B701C6010E94820516
:1016F0000E949C05C7010F900F900F900F90DF91F3
:10170000CF911F910F91FF90EF90DF90CF90BF90FE
:10171000AF9008950E94A6050F3F110509F030F41F
:1017200019820A831B8263E070E0D1CF17FD0BC0E2
:1017300019820A8333E0169507953A95E1F7007E02
:1017400008600B83F0CFC80126E0969587952A950F
:10175000E1F7807E19830A830115104C18F480612B
:101760008B83E1CF8861FCCFCF93DF931F92CDB7FE
:10177000DEB720914E0330E0322F2227260F371F8D
:1017800090E0982F882741E050E0BE016F5F7F4FC7
:10179000820F931F0E94290B89810F90DF91CF91B7
:1017A0000895CF93C82F462F61E070E00E94C406D1
:1017B00061E070E08C2F0E94B40B8111F9CFCF91C2
:1017C0000895CF93C82F80E591E00E94310168E031
:1017D00070E08C2FCF910C94D10BCF93C82F80E564
:1017E00091E00E94310160E170E08C2FCF910C9468
:1017F000D10BCF93DF93EC01888D843020F40E94CD
:10180000ED0B84E0888FDF91CF910895CF93C82F9F
:1018100080E591E00E94310163E070E08C2FCF9170
:101820000C94B40BCF93DF93EC018C858430D0F40F
:101830000E94060C843189F0882379F0883169F0A0
:1018400021E08C3159F4E881F9810084F185E02DA3
:10185000CE01099521E0892B09F420E0822FDF9148
:10186000CF91089580E0FBCFCF92DF92EF92FF926D
:10187000CF93DF93EC018C85843068F40E94E10BF8
:101880000E9468026B017C018C850E94060C81110C
:1018900009C084E08C87DF91CF91FF90EF90DF90BB
:1018A000CF90089561E070E080E090E00E94350202
:1018B0000E946802AB01BC014C195D096E097F09E9
:1018C0008D859E85B0E0A0E0481759076A077B0721
:1018D000D8F28C850E94ED0BDCCFCF93FC01C08D3C
:1018E00080E591E00E94310160E270E08C2F0E945F
:1018F000D10B62E070E08C2F0E94B40B84FD16C007
:1019000062E070E08C2F0E94B40B83FF0AC048E1B4
:1019100062E070E08C2F0E94C40680E090E0CF91DE
:10192000089580E591E00E943101E3CF40E162E05B
:1019300070E08C2F0E94C40681E0F0CFCF93DF933C
:101940001F92CDB7DEB741E050E0BE016F5F7F4F21
:1019500090E080E00E94290B89810F90DF91CF9168
:101960000895CF93DF93C4E1D0E00E949E0C8823BA
:1019700061F061E070E080E090E00E943502219724
:10198000A1F780E0DF91CF91089581E0FBCFCF9266
:10199000DF92EF92FF920F931F93CF93DF93CDB718
:1019A000DEB7C454D1090FB6F894DEBF0FBECDBF69
:1019B000FC0182819381A481B58123968CAF9DAF78
:1019C000AEAFBFAF239721E023962FAF2397239687
:1019D0004CAD5DAD6EAD7FAD23974BAB5CAB6DABEE
:1019E0007EAB89AF9AAFABAFBCAF8DA79EA7AFA7B9
:1019F000B8AB28AB4DA55EA56FA578A94FA358A796
:101A000069A77AA72EAB4BA95CA96DA97EA949A3AA
:101A10005AA36BA37CA38B8F9C8FAD8FBE8F4FEA95
:101A200051E05C8B4B8B3FEF3D8B3E8B3F8B188E99
:101A30005E874D872AA7CFA0D8A4E9A4FAA4CF86B1
:101A4000D88AE98AFA8A2CA309A11AA12BA13CA160
:101A500009871A872B873C875A8349838B839C830A
:101A6000AD83BE8380914F038111AFC060E372E00C
:101A700080E090E00E943502DFB6F8940EEB11E0B2
:101A800032EDE32E31E0F32E80914C03811125C01D
:101A9000F8018491F7019491E82FF0E0EE0FFF1F19
:101AA000E056FE4FA591B4918C91982321F461E00A
:101AB0008AE00E94930161E08AE00E94DF018CB518
:101AC00080618CBD8CB580648CBD61E08DE00E942E
:101AD000DF0161E08BE00E94DF0180914C038F5FAA
:101AE00080934C03DFBEF8010491E02FF0E0EE0F8D
:101AF000FF1FEA56FE4F8591949190934B0380937C
:101B00004A03F701E490E092490361E08AE00E9411
:101B1000DF010E949C0580E591E00E94310184E391
:101B200080934D0380E80E9468060E94B10C8823D0
:101B300009F481C088E00E9468060E949E0C8830EB
:101B400009F079C080E10E9468060E949E0C8031F5
:101B500009F071C080E00E9468060E949E0C182F58
:101B6000811169C041E050E0BE016D5B7F4F8FE1A4
:101B700090E00E94290B24968FAD2497833009F0C2
:101B80005AC080E480934E0342E06EE170E0812F02
:101B90000E94C40642E06FE170E0812F0E94C406FB
:101BA0001F5F143089F740E06EE170E0812F0E94E2
:101BB000C40640E06FE170E0812F0E94C4061F5F01
:101BC000183089F781E080934F0380E591E00E940F
:101BD000310146E050E062E171E089E090E00E946E
:101BE000B80544E050E0BE016D5F7F4F8FE090E0AC
:101BF0000E94B80544E050E0BE01615F7F4F81E084
:101C000090E00E94B80544E050E0BE016B5E7F4F5B
:101C100085E090E00E94B80581E08C8789859A85EF
:101C2000AB85BC858093190490931A04A0931B0480
:101C3000B0931C046FC087E380934D0380E80E943B
:101C400068060E94B10C882339F188E00E9468067A
:101C50000E949E0C883001F580E10E9468060E9477
:101C60009E0C182F8031C1F480E00E9468060E940B
:101C70009E0C811111C041E050E0BE016D5B7F4FB1
:101C800089E390E00E94290B24968FAD249784303D
:101C900019F410934E0396CF83E380934D0380E8AD
:101CA0000E9468060E94B10C882391F180E10E9495
:101CB00068060E949E0C803159F582E10E946806F8
:101CC0000E949E0C823121F580E00E9468060E94ED
:101CD0009E0C81111DC084E080934E0315E525966E
:101CE0001FAF259741E050E0BE016C5B7F4F8BE159
:101CF00090E00E94B80524961FAF249741E050E081
:101D0000BE016D5B7F4F8AE190E00E94B8055ACF1B
:101D100010924D03CC5BDF4F0FB6F894DEBF0FBEC1
:101D2000CDBFDF91CF911F910F91FF90EF90DF908A
:101D3000CF9008951F93CF93DF931F92CDB7DEB757
:101D4000182F80E591E00E943101812F0E947B06CF
:101D500027E0129FF0011124EB54FD4F22813381C3
:101D6000377041E050E0BE016F5F7F4F820F931FDD
:101D70000E94290B89810F90DF91CF911F910895C7
:101D8000FC01808D843040F4218D328D232B21F095
:101D90000E949A0E90E008958FEF9FEF0895CF93E1
:101DA000DF93FC012485243028F08FEF9FEFDF9133
:101DB000CF910895EC010190F081E02D0084F18530
:101DC000E02D0995892B89F38C850E949A0E90E06D
:101DD000EECFDA01E0914E03F0E0FE2FEE27E60FA2
:101DE000F71F90E0982F8827A901BD018E0F9F1F34
:101DF0000C94290B8F929F92AF92BF92CF92DF9259
:101E0000EF92FF921F93CF93DF93CDB7DEB72C975E
:101E10000FB6F894DEBF0FBECDBF20914D0314E086
:101E2000222339F16B017C0180E591E00E943101B0
:101E30005E0127E0A20EB11C450110E063E070E0F6
:101E4000812F0E94B40BF40181934F01882349F143
:101E50001F5F143099F710E0F50181915F018D311A
:101E6000D9F08831C9F08A518230B0F01F5F143048
:101E700099F7812F2C960FB6F894DEBF0FBECDBF19
:101E8000DF91CF911F91FF90EF90DF90CF90BF90A7
:101E9000AF909F908F90089560E170E0812F0E9435
:101EA000D10BA12EB12C83EE93E00197F1F742E81C
:101EB00070E060E0812F0E94C4064FEF62E070E0A6
:101EC000812F0E94C406B601C114D10491F48091FF
:101ED00010019091110101968115F0EC9F0708F413
:101EE0005CC090931101809310016091100170917A
:101EF0001101812F0E94AF0686E0EEE1F1E0DE01E4
:101F0000119601900D928A95E1F7F70183818F7701
:101F10008C8384818D8385818E83A7014E5F5F4F83
:101F200024E030E06CE070E0812F0E948906B60169
:101F3000812F0E949A0626E030E0AE014F5F5F4F8E
:101F400066E070E0812F0E94890661E070E0812FD9
:101F50000E94D10B27E02A9DC0012B9D900D1124DA
:101F60009C012B543D4F7901F9011182108222E02E
:101F700030E0AE01455F5F4F68E270E0812F0E9464
:101F8000E90E8B859C85982789279827F7019383ED
:101F900082831682158214826CCF80E090ECA1CFF0
:101FA000CF92DF92EF92FF920F931F93CF93DF9325
:101FB00000D000D000D0CDB7DEB78C016B017A0124
:101FC000FC01808D843010F40E94ED0B8FEA91E0CB
:101FD0009A838983F60182819381A481B5818B8361
:101FE0009C83AD83BE83B701CE0101960E94FA0E99
:101FF000F801808F8430A0F4F586E486128E118E6D
:1020000081E026960FB6F894DEBF0FBECDBFDF91FC
:10201000CF911F910F91FF90EF90DF90CF90089597
:1020200080E0EFCFAF92BF92CF92DF92EF92FF921C
:102030000F931F93CF93DF9300D000D000D0CDB784
:10204000DEB7082F6B0180E591E00E9431019E010F
:102050002F5F3F4F7901590110E063E070E0812F5D
:102060000E94B40BF50181935F01882341F11F5F4A
:10207000143099F710E0F70181917F018D31D1F093
:102080008831C1F08A518230A8F01F5F143099F76F
:10209000812F26960FB6F894DEBF0FBECDBFDF911D
:1020A000CF911F910F91FF90EF90DF90CF90BF9055
:1020B000AF90089560E170E0812F0E94D10BE12E76
:1020C000F12C83EE93E00197F1F7402F70E060E090
:1020D000812F0E94C4064FEF62E070E0812F0E94C2
:1020E000C406B601CD2889F48091100190911101A8
:1020F00001968115F0EC9F0798F190931101809360
:1021000010016091100170911101812F0E94AF06A2
:1021100061E070E0812F0E94D10B27E02E9DC0016D
:102120002F9D900D11249C012B543D4F7901F901F5
:102130001182108222E030E0AE014B5F5F4F68E217
:1021400070E0812F0E94E90E8D819E81982789275A
:102150009827F7019383828316821582148298CF81
:1021600080E090ECCACFCF92DF92EF92FF921F9364
:10217000CF93DF93EC017B016A018C85843048F4B6
:102180000E94060C882319F08C850E94E10B84E0E4
:102190008C87F70182819381A481B5810097A10585
:1021A000B10551F490E080E0DF91CF911F91FF9055
:1021B000EF90DF90CF9008958F3F9F4FAF4FBF4F6D
:1021C00089F380914D03811103C084E08C87EACFAD
:1021D00070E060E081E20E941210182F8C8784303A
:1021E00008F780E591E00E943101A7014E5F5F4F43
:1021F00024E030E06CE070E0812F0E948906B60197
:10220000812F0E949A0664E070E0812F0E94D10B1A
:102210000E9468026B017C018C850E94060C87314C
:1022200009F18C31F9F0882309F4BCCF0E946802CF
:10223000AB01BC014C195D096E097F098D859E8536
:10224000B0E0A0E084179507A607B70738F061E073
:1022500070E080E090E00E943502DECF8C850E9425
:10226000ED0BB3CF81E090E09FCF0F931F93CF93FF
:10227000DF93EC018B01888D843010F40E94ED0B0C
:1022800080914D03811107C094E0988FDF91CF9129
:102290001F910F910895B80182E00E941210888F5B
:1022A000843030F41D870C871A8E198E81E0EECFB2
:1022B00080E0ECCF7F928F929F92AF92BF92CF92AD
:1022C000DF92EF92FF920F931F93CF93DF9300D093
:1022D000CDB7DEB7782E8B014A01590122E030E0FC
:1022E000AE014F5F5F4F64E270E00E94E90EE9804B
:1022F000FA80FE24EF24FE24E00EF11E97013770D1
:1023000040914D03072D10E0433309F042C0085FB0
:102310001F4F102F0027110F110F110FC901800F30
:10232000911F4733C9F1A9014A0D5B1D4130584047
:1023300098F160E078E06B01C21AD30AA601B401FB
:102340000E94B805A5014C195D09B4016C0D7D1DF5
:10235000C8010E94B805EA0CFB1CF982EA8222E05F
:1023600030E0AE014F5F5F4F64E270E0872D0E9466
:1023700089060F900F90DF91CF911F910F91FF90E1
:10238000EF90DF90CF90BF90AF909F908F907F9015
:102390000895005F1F4FBDCFA501B401DACFEF92C2
:1023A000FF921F93CF93DF9300D0CDB7DEB7182FE6
:1023B00022E030E0AE014F5F5F4F60E270E00E94CC
:1023C000E90EE980FA80FE24EF24FE2422E030E0CA
:1023D000AE014F5F5F4F60E270E0812F0E94E90E17
:1023E00089819A81982789279827E816F90689F420
:1023F00087E0189FF0011124EB54FD4FF582E48231
:10240000C7010F900F90DF91CF911F91FF90EF9038
:1024100008957C01DBCF1F93CF93DF93182F80E5C6
:1024200091E00E943101812F0E94CF11EC0163E005
:1024300070E0812F0E94B40B873121F08C3111F0B4
:10244000D0E0C0E0CE01DF91CF911F910895CF93EE
:10245000DF93EC018C85843060F40E94060C873198
:1024600011F08C3131F48C850E940B12811598404B
:1024700088F3DF91CF910895FC018485843010F4B6
:102480000C940B1290E080E008959F92AF92BF925F
:10249000CF92DF92EF92FF920F931F93CF93DF9330
:1024A0008C015B01942EE52EFC01C688D788F08C48
:1024B00080E591E00E9431018F2D0E94CF11C92D3E
:1024C000DE2D8C179D0708F4EC019E01A501B601D5
:1024D0008F2D0E945A11F801868997898C0F9D1FB4
:1024E000978B868BCE01DF91CF911F910F91FF903B
:1024F000EF90DF90CF90BF90AF909F9008958F9214
:102500009F92AF92BF92CF92DF92EF92FF920F9382
:102510001F93CF936C015B018A01FC01C485C43019
:10252000F0F57A014130584018F0E12C88E0F82E9F
:1025300080E591E00E9431018C2F0E94CF114C0167
:1025400063E070E08C2F0E94B40B873111F08C3166
:1025500049F58E149F0460F380E591E00E943101FB
:102560009701A50170E060E08C2F0E945A1160E293
:1025700070E08C2F0E94D10B62E070E08C2F0E94E3
:10258000B40B84FD17C063E070E08C2F0E94B40B85
:1025900081110BC081E090E0F6019383828310E00B
:1025A00000E010C0F12CE12CD7CF80E591E00E9433
:1025B0003101E2CF40E162E070E08C2F0E94C4065E
:1025C000EF2841F3C801CF911F910F91FF90EF9039
:1025D000DF90CF90BF90AF909F908F900895FF9223
:1025E0000F931F93CF93DF9300D0CDB7DEB7F82EB4
:1025F00022E030E0AE014F5F5F4F66E270E00E9484
:10260000E90E09811A8110270127102722E030E006
:10261000AE014F5F5F4F66E270E08F2D0E94E90EC2
:1026200089819A819827892798270817190749F4DB
:10263000C8010F900F90DF91CF911F910F91FF90E4
:1026400008958C01E3CF1F93CF93DF93182F87E07A
:10265000189FE0011124CB54DD4F888199810097A8
:1026600061F480E591E00E943101812F0E94EF1218
:102670002E81821B910999838883DF91CF911F91CD
:102680000895FC018485843010F40C94231390E0A9
:1026900080E008954F925F927F928F929F92AF92C7
:1026A000BF92CF92DF92EF92FF920F931F93CF933F
:1026B000DF9300D0CDB7DEB7782E6B014A01A82E8C
:1026C000B12C27E0829FC0011124FC01EB54FD4F87
:1026D0007F010081118180E591E00E9431010815A0
:1026E000190554F4872D0E94EF12F70126818C0101
:1026F000021B1109118300830115110529F563E0FF
:1027000070E0872D0E94B40B843159F0882349F082
:1027100001E010E08C3111F410E000E0119501951A
:102720001109C8010F900F90DF91CF911F910F9168
:10273000FF90EF90DF90CF90BF90AF909F908F90E1
:102740007F905F904F900895801691060CF484015D
:1027500087E08A9DF0018B9DF00D1124EB54FD4F15
:10276000E280F380C114D10451F12701F7E05F2228
:10277000872D0E947B06840D951D20914D032733E4
:1027800009F453C09801240D351D2130384008F458
:102790004CC020E038E0490184189508A401B60136
:1027A0000E94290B2601480C591C6801C818D90839
:1027B000872D0E947B06A601B2010E94290BE00E24
:1027C000F11E87E08A9DF0018B9DF00D1124EB54E2
:1027D000FD4FF382E28220813181201B310B318356
:1027E00020838681800F912F911D8A3F910510F4DF
:1027F000232BF1F487E08A9DF0018B9DF00D1124CD
:10280000EB54FD4F1682F982EA8222E030E0AE01FD
:102810004F5F5F4F68E270E0872D0E94890660E499
:1028200070E0872D0E94D10B7CCFA801B601C5CFE7
:10283000868377CFCF93DF93FC01218D328D2115D5
:10284000310529F48FEF9FEFDF91CF910895EC01CF
:10285000808D4217530708F0A9010E944A131816E9
:10286000190684F7298D3A8D281B390B3A8F298F49
:10287000EBCF0F931F93CF93DF931F92CDB7DEB7AC
:10288000FC01218D328D232B41F48FEF9FEF0F90B0
:10289000DF91CF911F910F9108958C0141E050E09D
:1028A000BE016F5F7F4FFC01808D0E944A13181696
:1028B00019065CF7F801818D928D0197928F818FB7
:1028C000898190E0E4CFCF93DF931F92CDB7DEB73D
:1028D00041E050E0BE016F5F7F4FFC0184850E94A4
:1028E0004A131816190634F4898190E00F90DF918D
:1028F000CF9108958FEF9FEFF9CFFC01848584304D
:1029000010F40C944A1390E080E008950F931F9305
:10291000CF93DF9300D0CDB7DEB7FC012485243000
:10292000E0F48C0180E591E00E94310122E030E08A
:10293000AE014F5F5F4F60E170E0F80184850E9457
:10294000E90E89819A819827892798270F900F90FF
:10295000DF91CF911F910F91089590E080E0F6CF25
:102960000F931F93CF93DF9300D0CDB7DEB7FC0159
:1029700024852430E0F48C0180E591E00E9431014F
:1029800022E030E0AE014F5F5F4F64E070E0F8019D
:1029900084850E94E90E89819A8198278927982742
:1029A0000F900F90DF91CF911F910F91089590E0BC
:1029B00080E0F6CF0F931F93CF93DF93CDB7DEB7B1
:1029C00028970FB6F894DEBF0FBECDBF8C01D8019B
:1029D00059964D915C915A974115510551F0ED91E1
:1029E000FC91048CF58DE02D70E060E0C801099544
:1029F000EECFF801808D0E942313892BB1F148E0BE
:102A000050E0BE016F5F7F4FD80158968C910E94B5
:102A10004A1318161906F4F4D801509684E0FE0102
:102A2000319601900D928A95E1F78D8190E0982F73
:102A300088272E81820F911DF801958B848B8F81C1
:102A4000282F30E0322F22278885820F932F911D67
:102A5000928F818F28960FB6F894DEBF0FBECDBF40
:102A6000DF91CF911F910F91089590E080E0F2CF18
:102A70004F925F926F927F928F929F92AF92BF928E
:102A8000CF92DF92EF92FF920F931F93CF93DF933A
:102A9000CDB7DEB763970FB6F894DEBF0FBECDBFDC
:102AA0007C016B013A01FB0120E090E080E06AE0EC
:102AB0003191332309F461C040ED430F4A3008F0EF
:102AC0004DC0689FA001699F500D1124CA01C09795
:102AD000830F911D37FD9A958F3F910549F340F380
:102AE000F70142815381648175818091F503909152
:102AF000F603A091F703B091F803481759076A0746
:102B00007B0709F40DC28701085F1F4F0E9468020E
:102B10006F7077277C5FC8010E943511813009F002
:102B200004C28FEA91E09A838983F70182819381BD
:102B3000A481B5818B839C83AD83BE8345E350E044
:102B4000BE016F5F7F4FC8010E941907892BA9F54D
:102B5000D12CC12CC8010E94F90B17C03E3209F0DC
:102B6000BFCF233009F4BCCFD301A20FB11D129601
:102B70008C932F5F90E080E09BCF233009F0B0CFA3
:102B8000F3018583CC24C394D12CC60163960FB680
:102B9000F894DEBF0FBECDBFDF91CF911F910F9193
:102BA000FF90EF90DF90CF90BF90AF909F908F906D
:102BB0007F906F905F904F9008950E946802F70198
:102BC0007783668342E050E0B7016A5F7F4FC801B8
:102BD0000E94451281E090E09A83898342E050E0B0
:102BE000BE016F5F7F4FC8010E94451280E091E0F7
:102BF0009A83898342E050E0BE016F5F7F4FC80136
:102C00000E9445121A82198242E050E0BE016F5FB5
:102C10007F4FC8010E94451242E050E0BE016F5F45
:102C20007F4FC8010E94451242E050E0BE016F5F35
:102C30007F4FC8010E9445125601F601808188230A
:102C400001F16501F60181912F01882311F08E3287
:102C5000B1F446018A189B081814190474F48D867F
:102C600041E050E0BE01635F7F4FC8010E94451202
:102C7000A401B501C8010E9445125201DECF6201D4
:102C8000E1CF1D8641E050E0BE01635F7F4FC80188
:102C90000E944512C12CDD24D394DA82C98242E01D
:102CA00050E0BE016F5F7F4FC8010E944512DA827B
:102CB000C98242E050E0BE016F5F7F4FC8010E94B1
:102CC0004512C8010E946D0C892B09F441CFF3E035
:102CD000AF2EB12C230122E0420E511CD4C0F701CB
:102CE0004281538164817581808D918DA28DB38DD8
:102CF000481759076A077B0709F008C1848D958D2D
:102D0000C59709F003C181A192A15DEFC52EDD2415
:102D1000DA940C970CF4ADC04CE050E0BE016F5F4C
:102D20007F4FC8010E941A148B819C8198278927A4
:102D300098279A8B898BF7014681578129813A819F
:102D40004217530709F0E7C097FFE5C08F709270F4
:102D50003BEFC32EDD24DA94892B09F08AC06F8003
:102D600078847624672476242AEFC22EDD24DA9430
:102D70006114710409F47DC0D12CC12C8D819E8118
:102D8000982789279827C816D906F8F441E050E01B
:102D9000BE01635F7F4FC8010E941A144D85442312
:102DA00031F050E070E060E0C8010E941A148D8597
:102DB0008111ECCF44E050E070E060E0C8010E9477
:102DC0001A14FFEFCF1ADF0AD9CF912C812C41E0E2
:102DD00050E0BE016D5E7F4FC8010E941A144B89FE
:102DE000842F807C09F06CC0442331F050E070E007
:102DF00060E0C8010E941A148B898111E8CF42E07B
:102E000050E0BE01615F7F4FC8010E941A1442E08A
:102E100050E0BE01635F7F4FC8010E941A1444E076
:102E200050E070E060E0C8010E941A1442E050E0F7
:102E3000BE016F5E7F4FC8010E941A148F8598896A
:102E400049895A898115914009F043C0CD84DE84B7
:102E5000DC24CD24DC2481E0C816D104D1F5411551
:102E6000544009F04AC044E050E0B201C8010E9459
:102E70001A1421E0A21AB10809F46CCEFFEFCF16A4
:102E8000DF0609F067CE0E9468023B014C01C801D1
:102E90000E94DA14181619060CF421CF0E94680259
:102EA000661977098809990969387341810591057F
:102EB00048F562E370E080E090E00E943502E7CFE1
:102EC00041E050E070E060E0C8010E941A141B8AE3
:102ED00093CF54274527542770E060E0C8010E9433
:102EE0001A14FFEF8F1A9F0A6814790409F06FCF44
:102EF00096EFC92EDD24DA94BCCFE7EFCE2EDD2489
:102F0000DA94B7CFCC24CA94DC2CB3CF6EEFC62EA4
:102F1000DD24DA94AECF4CEFC42EDD24DA94A9CFB1
:102F20008EEFC82EDD24DA9430CED12CC12C2DCEDC
:102F3000CF92DF92EF92FF920F931F93CF93DF9385
:102F4000CDB7DEB7AF970FB6F894DEBF0FBECDBFDB
:102F50007C016A010FEA11E01A8309831C861B8633
:102F600088EE93E0A0E0B0E08D879E87AF87B88BB6
:102F70008FE291E09A878987188F0F8B198E1A8EAE
:102F80001B8E1C8E84E089A31BA70AA71CA61DA666
:102F90001EA61FA68091190490911A04A0911B04EB
:102FA000B0911C048EA39FA3A8A7B9A78B839C8371
:102FB000AD83BE8318861F82AE01465D5F4FCE0192
:102FC00001960E94381581309105B1F4D701ED9139
:102FD000FC910488F589E02D1DA30CA38CA59DA56B
:102FE000AEA5BFA58EA39FA3A8A7B9A7A601BE01A2
:102FF0006C5D7F4FC7010995AF960FB6F894DEBFA1
:103000000FBECDBFDF91CF911F910F91FF90EF9039
:10301000DF90CF900895CF92DF92EF92FF920F93BF
:103020001F93CF93DF93CDB7DEB7AF970FB6F8946A
:10303000DEBF0FBECDBF8C016B017A018FEA91E03C
:103040009A8389831B821C821D821E821C861B869A
:1030500048EE53E060E070E04D875E876F87788BC5
:103060002FE231E03A872987988F8F8B198E1A8E3D
:103070001B8E1C8E24E029A39BA78AA71CA61DA635
:103080001EA61FA6D8011C968C91843060F40E9465
:10309000060C882321F0F80184850E94E10B84E06E
:1030A000D8011C968C938091190490911A04A091D8
:1030B0001B04B0911C048EA39FA3A8A7B9A78B8360
:1030C0009C83AD83BE8318861F82AE01465D5F4F31
:1030D000B601CE0101960E9438150097C1F0D801C3
:1030E000ED91FC910684F785E02D8FEA91E09DA398
:1030F0008CA38CA59DA5AEA5BFA58EA39FA3A8A7B5
:10310000B9A7A701BE016C5D7F4FC8010995AF96B5
:103110000FB6F894DEBF0FBECDBFDF91CF911F91E8
:103120000F91FF90EF90DF90CF900895EF92FF9274
:103130000F931F93CF93DF9300D000D0CDB7DEB7AE
:103140008C017B01FB0184858430A8F08FEA91E03B
:10315000F801918380831282138214821582C80140
:103160000F900F900F900F90DF91CF911F910F91C3
:10317000FF90EF90089580E591E00E94310124E0F6
:1031800030E0AE014F5F5F4F6CE070E0F701848587
:103190000E94E90E8FEA91E0F80191838083898192
:1031A0009A81AB81BC8182839383A483B583D7CF7B
:1031B000CF92DF92EF92FF920F931F93CF93DF9303
:1031C000CDB7DEB728970FB6F894DEBF0FBECDBFE0
:1031D0008C017B016A0164EB71E080E593E00E9461
:1031E000430A0115110529F0B80180E593E00E941A
:1031F000430A6AEC71E080E593E00E94430A1A8278
:1032000019821C821B821E821D8270E060E0CE014A
:1032100001960E941B0A29813A81811132C0211531
:10322000310519F0C9010E94BA241A8219821E823E
:103230001D821C821B828701CE0CDF1C4D815E81AA
:10324000C016D10631F1F80181918F018F83188664
:103250007A01FFEFEF1AFF0AB701CE0101960E9433
:103260001B0A882359F329813A818D819E81BE01F1
:10327000695F7F4F820F931F0E942226FE82ED829C
:10328000DDCF1E821D8263EB71E0C9010E94222600
:10329000D2CF69817A8180E593E00E94750461EB69
:1032A00071E080E593E00E94430A89819A8100974A
:1032B00011F00E94BA2428960FB6F894DEBF0FBE14
:1032C000CDBFDF91CF911F910F91FF90EF90DF90D5
:1032D000CF9008950C94BA241F920F920FB60F92BC
:1032E00011242F933F938F939F93AF93BF9380911C
:1032F000AD029091AE02A091AF02B091B0023091B8
:10330000AC0223E0230F2D3758F50196A11DB11D06
:103310002093AC028093AD029093AE02A093AF02D3
:10332000B093B0028091B1029091B202A091B30229
:10333000B091B4020196A11DB11D8093B10290938A
:10334000B202A093B302B093B402BF91AF919F9128
:103350008F913F912F910F900FBE0F901F90189556
:1033600026E8230F0296A11DB11DD2CF1F920F9206
:103370000FB60F9211242F933F934F935F936F9348
:103380007F938F939F93AF93BF93EF93FF9380E5CA
:1033900093E00E94F304FF91EF91BF91AF919F9151
:1033A0008F917F916F915F914F913F912F910F90EE
:1033B0000FBE0F901F9018951F920F920FB60F928D
:1033C00011242F938F939F93EF93FF93E0916003CA
:1033D000F09161038081E0916603F091670382FDC3
:1033E0001BC09081809169038F5F8F7320916A0366
:1033F000821741F0E0916903F0E0E05BFC4F958FAC
:1034000080936903FF91EF919F918F912F910F907E
:103410000FBE0F901F9018958081F4CFCF93DF934C
:10342000E0E5F3E01382128248EE53E060E070E0E2
:1034300044835583668377838FE591E0918380830E
:1034400085EC90E09587848784EC90E09787868769
:1034500080EC90E0918B808B81EC90E0938B828B61
:1034600082EC90E0958B848B86EC90E0978B868B3A
:10347000118E128E138E148EEDEEF3E08FEA91E032
:10348000918380831282138214821582E3EFF3E02A
:10349000918380831282138214821582E9EFF3E014
:1034A000918380831282138214821582EFEFF3E0FE
:1034B000918380831282138214821582E5E0F4E006
:1034C000918380831282138214821582EBE0F4E0F0
:1034D000918380831282138214821582E1E1F4E0E9
:1034E000918380831282138214821582EDE1F4E0CD
:1034F000918380831282138214821582E7E1F4E0C3
:10350000918380831282138214821582E3E2F4E0B5
:10351000918380831282138214821582E2E9F4E09F
:10352000918380831282138214821582ECE8F4E086
:10353000918380833AE032832EE623831482A7E0CE
:10354000A583E6E8F4E091838083328323831482A9
:1035500023E02583E7E7F4E0138212824483558356
:10356000668377832DE731E03183208328E0248749
:1035700028EE33E036872587CEE4D4E01B821A821A
:1035800021E731E0398328839C8F8B8F1D8E1E8E1F
:103590001F8E18A28FEF9FEF98A78FA3FD83EC8358
:1035A0001EA21DA280E091E00E941E249F838E83B4
:1035B00080E091E0998788878FE090E09B878A87F9
:1035C0009D878C8760E082E00E94DF01EAECF1E0F9
:1035D000E491A0E4B4E0EC93E6EBF1E0E491F0E0F8
:1035E000EE0FFF1FE655FE4F8591949112969C9326
:1035F0008E9311971B961C921B971D961C921D97DC
:103600001C961C921C971A961C921A9719961C923B
:10361000199718961C92189717961C92179716963A
:103620001C92169715961C92159714961C92149737
:1036300013961C921397E9E2F4E0168A158A118218
:10364000B287A18717821086108289E0838381E088
:10365000848385838683DF91CF910895CF93DF9311
:10366000CDB7DEB729970FB6F894DEBF0FBECDBF3A
:10367000789484B5826084BD84B5816084BD85B54D
:10368000826085BD85B5816085BD80916E00816059
:1036900080936E00109281008091810082608093FF
:1036A0008100809181008160809381008091800001
:1036B0008160809380008091B10084608093B1002C
:1036C0008091B00081608093B00080917A00846026
:1036D00080937A0080917A00826080937A00809152
:1036E0007A00816080937A0080917A00806880936C
:1036F0007A001092C100E0916003F091610382E0D2
:103700008083E0915C03F0915D031082E0915E03A1
:10371000F0915F0380E1808310926803E09164037D
:10372000F091650386E08083E0916203F09163038A
:10373000808180618083E0916203F09163038081E6
:1037400088608083E0916203F091630380818068E8
:103750008083E0916203F091630380818F7D808399
:103760000FEA11E01A83098380918E0490918F04EF
:10377000A0919004B09191048B839C83AD83BE8310
:10378000CE0101960E94C70C6CED75E080E090E0E0
:103790000E9435021A8309838091880490918904DC
:1037A000A0918A04B0918B048B839C83AD83BE83EC
:1037B000CE0101960E941A0188ED98E19093680469
:1037C00080936704FCEFCF2EDD24DA940E94680218
:1037D0000091A8021091A9022091AA023091AB0297
:1037E000601B710B820B930B653F71408105910546
:1037F00008F4E5C10E9468026093A8027093A902D0
:103800008093AA029093AB020E945601811187C156
:10381000E2EC7E2E0E945601811181C16EEC71E0B6
:1038200080E593E00E94430A0E94560181115EC127
:103830008091520490915304DC01ED91FC91068833
:10384000F789E02D0995882309F470C0E1E0F0E0E4
:10385000F0935D04E0935C0487E0E4E2F1E0DE01D4
:10386000119601900D928A95E1F7DE01119685E09F
:1038700090E02D91E0915404F0915504E80FF91F68
:10388000208301968C309105A1F70091540410918A
:103890005504D8011C967C921C97809159041D9662
:1038A0008C931D97809158041E968C93E09056043B
:1038B000F0905704B70185EF91E00E940A204196ED
:1038C000E816F90608F06BC08091520490915304F9
:1038D000DC01ED91FC910488F589E02D099569E200
:1038E00072E080E593E00E94430A40917504509194
:1038F0007604052E000C660B770B77FF0AC1CB010F
:10390000BA010E949E0A65E372E080E593E00E949E
:10391000430A61EB71E080E593E00E94430A68E8A6
:1039200073E180E090E00E94350274CF60916F04F3
:10393000709170048091520490915304DC01ED91D8
:10394000FC9140917104509172046115710571F000
:103950000088F189E02D0995019709F477CFEEEF02
:10396000FFEFF0937604E0937504B9CF0684F785F2
:10397000E02D7FEA472E71E0572E5A82498200914E
:103980006B0410916C0420916D0430916E040B83D4
:103990001C832D833E83BE016F5F7F4FDCCF4FE0E2
:1039A00050E0B80185EF91E00E9434018C01E09075
:1039B0005604F0905704B70189E092E00E940A2073
:1039C000800F911F0296E816F90608F47DCF6091EA
:1039D000540470915504A80189E092E00E943401DA
:1039E0008C01E0905604F0905704B70180E192E01A
:1039F0000E940A20800F911F0296E816F90608F42B
:103A000063CF6091540470915504A80180E192E065
:103A10000E943401AC0145505109609154047091E9
:103A2000550480E10E9474020E94680260935E0463
:103A300070935F04809360049093610460936204C8
:103A4000709363048093640490936504809152049E
:103A500090915304DC01ED91FC910084F185E02DFF
:103A60000995892B11F50E9468020091620410915A
:103A7000630420916404309165044B015C01801A59
:103A8000910AA20AB30A20915A0430915B04A8EE6D
:103A9000B3E00E94AB2386169706A806B906B0F2DB
:103AA000D0927604C09275040FCFCE0108960E9482
:103AB0002203643071058105910509F005CFE0917D
:103AC0005404F0915504838181111DC00E94680245
:103AD000609362047093630480936404909365041C
:103AE0001092660410927604109275046FE172E0F1
:103AF00080E593E00E94430A61EB71E080E593E08A
:103B00000E94430A87CE90E09093760480937504D8
:103B1000DBCE2AE080E593E00E94520AF4CE0E94B8
:103B20005601882309F44BC00E9468024B015C01D6
:103B30002091580430915904A8EEB3E00E94AB23C1
:103B40000091620410916304209164043091650433
:103B500024013501401A510A620A730A9301820155
:103B60006017710782079307B0F000915E0410910F
:103B70005F04209160043091610424013501401AF2
:103B8000510A620A730A9301820160177107820762
:103B9000930708F00BC180916604882309F4D7C00D
:103BA000D0927604C092750480915204909153048F
:103BB000DC01ED91FC910488F589E02D09950E94C6
:103BC00068020091A4021091A5022091A6023091F2
:103BD000A702601B710B820B930B61317742810549
:103BE000910508F49DC00E9468026093A40270933E
:103BF000A5028093A6029093A7028091320490912F
:103C000033040E943D0840E06CEC809132049091B6
:103C100033040E94AB074091290464E4809132048C
:103C2000909133040E94AB070E9468024B015C0133
:103C300080912D048823E1F080912E04882309F4DB
:103C40009CC180912904811198C180913204909186
:103C500033040E941908813059F00E9468026819E3
:103C600079098A099B096E3E72408105910568F3C6
:103C700088E091E00E9475080E94E8234B01072E1E
:103C8000000C880B990B0E944E220AE912E022E0F8
:103C900044E00E94EC1FC4010E94C10AF1E88F16A3
:103CA000FFEF9F0689F025E58216910469F0B801BF
:103CB00081ED92E00E94222665E572E08DE093E0BE
:103CC0000E9422260E94C60980E091E00E947508A9
:103CD0000E94E8234B01072E000C880B990B0E94D1
:103CE0004E220AE912E022E044E00E94EC1FC401E7
:103CF0000E94C10A31E883163FEF930689F045E53B
:103D00008416910469F0B80181ED92E00E942226A8
:103D100067E772E08DE093E00E9422260E94C609C8
:103D20000E94680260347B448C44910518F0F0E0F6
:103D3000E0E0099580E090E0892B09F447CD0E94EE
:103D4000DF04882309F43ECD0E9400003BCDE091C2
:103D50005404F091550480EC8083E0915404F09178
:103D6000550411828091520490915304609154043F
:103D700070915504DC01ED91FC910280F381E02DFE
:103D800042E050E0099580925E0490925F04A09218
:103D90006004B09261048092620490926304A092E5
:103DA0006404B092650481E08093660480915204BB
:103DB00090915304DC01ED91FC910084F185E02D9C
:103DC0000995892B09F4FBCECE0101960E942203AE
:103DD0002B01672B09F4CEC0809262049092630499
:103DE000A0926404B0926504E0915404F0915504EB
:103DF0008081807F803309F09CC08091670490911E
:103E00006804892B09F4DBCE498150E0CA0102968F
:103E10008E0F9F1FDF01A40FB51F11960C9110E0AC
:103E2000102F0027DC016C91060F111DBA016D5F88
:103E30007F4F6E0F7F1FA8010E9409268981E091A4
:103E40005404F0915504E00FF11FE80FF11D1282A8
:103E5000A0915404B0915504298130E0C901029623
:103E60008A0F9B1F4C9146704987209067043090C1
:103E70006804423009F04BC0B801620F731FFD01A6
:103E8000E60FF71FE380F12CFE2CEE244481E40EB4
:103E9000F11C4BEF5FEF421B530B401B510B440DCA
:103EA000551D6B5F7F4F6A0F7B1FF1010995E091F4
:103EB0005404F091550480E48083E0915404F0911F
:103EC000550449844182E0915404F0915504F282F2
:103ED000E0915404F0915504E38280915204909152
:103EE00053046091540470915504DC01ED91FC91F0
:103EF0000280F381E02D44E050E0099580925E0459
:103F000090925F04A0926004B092610458CE4DEF8D
:103F10005FEF421B530B401B510B440D551D2D5F92
:103F20003F4F200F311FBD01620F731FF101099533
:103F300046CE803CC9F480ED8083E0915404F0913A
:103F4000550411828091520490915304609154045D
:103F500070915504DC01ED91FC910280F381E02D1C
:103F600042E050E009952BCE803D09F028CE10921A
:103F7000660425CE0E94560122CEE0912C04E95021
:103F80008EEE92E0E33038F4F0E0EE0FFF1FEB5AD4
:103F9000FE4F808191814C01B12CA12C80912A048B
:103FA000882329F060E080912B040E949301C501D1
:103FB000B4010E94350280912A04882309F458CE66
:103FC00061E080912B040E94930152CE80915404B1
:103FD000909155040C94BA24EF920F931F93CF93B2
:103FE000DF93E80134E047FD34E1042E000C550B6B
:103FF00057FF03C0519541955109E32E022F242FFD
:10400000AE010E941520CE01DF91CF911F910F913B
:10401000EF900895FC016150704001900110D8F7B5
:10402000809590958E0F9F1F0895A9E0B0E0EBE179
:10403000F0E20C9458236A01F22EB02E102FFBE30D
:10404000AF2EA01608F41BE31F5F012F27E0AE017F
:104050004F5F5F4F0E947421BC018981982F997036
:10406000913009F43FC09BE2E1FC04C09E2D9170A9
:10407000E0FC3AC05E2D5071E82FE87083FF46C027
:1040800084E0911101C083E0EF2DE81B8F1508F04B
:10409000E0E0D6018E2F20E2552351F1992329F03B
:1040A000D6019C93C60101966C0196012D5F3F4F8E
:1040B000E2FE24C08EE4D6018C9391E411969C9389
:1040C000119712968C93D9018E2F90E281111BC00B
:1040D000E20FF32FF11D10828EEF9FEF2996ECE097
:1040E0000C9474239DE2C6CF90E2C4CF2D938150EF
:1040F0008111FCCFCE0ED11CE0E0D0CF8EE6D601F0
:104100008C9391E6DBCF9D938150E0CF482F447094
:1041100082FF3DC084E0911101C083E08F1510F44F
:10412000EF2DE81BD6018E2F20E2552309F19923AC
:1041300029F0D6019C93C60101966C0196012D5F72
:104140003F4FE2FE1BC089E4D6018C938EE41196AA
:104150008C93119786E412968C93D9018E2F90E25E
:10416000882309F4B5CF9D938150FACF2D938150C8
:104170008111FCCFCE0ED11CE0E0D9CF89E6D6016B
:104180008C938EE611968C93119786E6E4CF9B0173
:1041900077FF02C030E020E0A1E0B0E0911102C062
:1041A000B0E0A0E0F9013196AE0FBF1F8B2C912C2F
:1041B000BB2009F461C05401EFEFAE1ABE0AAA0D8C
:1041C000BB1DFA161B0619F014F04F2D4A1B511196
:1041D00088C0E3FC59C07601A42FB0E2A1114FC002
:1041E000C40ED11C992309F45BC040E0D60111969E
:1041F000F60190836D01552309F448C0012F060F85
:104200009A81582F507184FF03C0913309F40150F3
:1042100010160CF047C0093008F008E0EEE2FE2E60
:104220005B01A01AB10885019194819491082F3FF8
:10423000320729F4D601FC92F60131966F0162171C
:10424000730794F1021713077CF5DB01A21BB30B74
:10425000AA24A394B12CAC0EBD1EAA0DBB1D1196B1
:104260008C9121503109D601119628153905F4F0A9
:10427000F60180836D01DBCFB12CA12CA0CFF7011B
:10428000B1937F01A150AACF9111B0CFD601942F45
:1042900050E302C05D9391509111FCCFC40ED11C2C
:1042A00040E0ACCF01E0BACF80E3DBCF6217730709
:1042B00031F4963388F4953311F4552369F0F601FF
:1042C0008083FD01842F90E2811108C0A40FB11DED
:1042D0001C9290E080E002CF81E3F1CF9193815076
:1042E000F3CF911183CF8ACF283008F027E033270E
:1042F000DA01990F311D87FD916000966105710506
:1043000039F432602E5F3D9330E32A95E1F708954A
:104310009F3F30F080387105610509F03C5F3C5FDC
:104320003D93913008F08068911DDF93CF931F93E8
:104330000F93FF92EF92192F987F9695E92F9695FC
:104340009695E90FFF27EE53FF4F99273327EE2469
:10435000FF24A701E70105900894079428F4360F7D
:10436000E71EF81E491F511D660F771F881F991FF2
:104370000694A1F70590079428F4E70EF81E491F4C
:10438000561FC11D770F881F991F661F0694A1F73E
:104390000590079428F4F80E491F561FC71FD11D1A
:1043A000880F991F661F771F0694A1F70590079441
:1043B00020F4490F561FC71FD81F990F661F771F7C
:1043C000881F0694A9F784911095177041F0D6952F
:1043D000C79557954795F794E7941A95C1F7E8E67E
:1043E000F0E068941590159135916591959105903F
:1043F0007FE27395E118F10A430B560BC90BD00904
:10440000C0F7E10CF11E431F561FC91FD01D7EF4DB
:10441000703311F48A95E6CFE894015030F0080F1C
:104420000AF40027021708F4202F2395022F7A336D
:1044300028F079E37D932A95E9F710C07D932A95BA
:1044400089F6069497956795379517951794E1180F
:10445000F10A430B560BC90BD00998F023957E91B6
:1044600073957A3308F070E37C932013B8F77E914C
:1044700070617D9330F0839571E37D9370E32A95AD
:10448000E1F71124EF90FF900F911F91CF91DF91F1
:10449000992787FD90950895E89409C097FB3EF40D
:1044A00090958095709561957F4F8F4F9F4F992381
:1044B000A9F0F92F96E9BB279395F69587957795FF
:1044C0006795B795F111F8CFFAF4BB0F11F460FFBF
:1044D0001BC06F5F7F4F8F4F9F4F16C0882311F017
:1044E00096E911C0772321F09EE8872F762F05C02B
:1044F000662371F096E8862F70E060E02AF09A95C6
:10450000660F771F881FDAF7880F9695879597F9BA
:1045100008950E949C220C940D230E94FF2238F0E3
:104520000E94062320F0952311F00C94F6220C949F
:10453000FC2211240C9441230E941E2370F3959FAA
:10454000C1F3950F50E0551F629FF001729FBB278A
:10455000F00DB11D639FAA27F00DB11DAA1F649F26
:104560006627B00DA11D661F829F2227B00DA11DD9
:10457000621F739FB00DA11D621F839FA00D611D5F
:10458000221F749F3327A00D611D231F849F600D80
:10459000211D822F762F6A2F11249F5750409AF0A9
:1045A000F1F088234AF0EE0FFF1FBB1F661F771F35
:1045B000881F91505040A9F79E3F510580F00C9400
:1045C000F6220C9441235F3FE4F3983ED4F38695A2
:1045D00077956795B795F795E7959F5FC1F7FE2BA0
:1045E000880F911D9695879597F9089597F99F677C
:1045F00080E870E060E008959FEF80EC089500246B
:104600000A941616170618060906089500240A9437
:1046100012161306140605060895092E0394000CBD
:1046200011F4882352F0BB0F40F4BF2B11F460FF4C
:1046300004C06F5F7F4F8F4F9F4F089557FD905875
:10464000440F551F59F05F3F71F04795880F97FB56
:10465000991F61F09F3F79F0879508951216130610
:104660001406551FF2CF4695F1DF08C0161617063F
:104670001806991FF1CF8695710561050894089574
:10468000E894BB2766277727CB0197F908950E9406
:10469000AB23A59F900DB49F900DA49F800D911DFD
:1046A000112408952F923F924F925F926F927F92C2
:1046B0008F929F92AF92BF92CF92DF92EF92FF9232
:1046C0000F931F93CF93DF93CDB7DEB7CA1BDB0BDE
:1046D0000FB6F894DEBF0FBECDBF09942A88398883
:1046E00048885F846E847D848C849B84AA84B9848A
:1046F000C884DF80EE80FD800C811B81AA81B98196
:10470000CE0FD11D0FB6F894DEBF0FBECDBFED01A9
:104710000895A1E21A2EAA1BBB1BFD010DC0AA1F02
:10472000BB1FEE1FFF1FA217B307E407F50720F01A
:10473000A21BB30BE40BF50B661F771F881F991F95
:104740001A9469F760957095809590959B01AC01DE
:10475000BD01CF010895A29FB001B39FC001A39FE7
:10476000700D811D1124911DB29F700D811D1124AA
:10477000911D089597FB072E16F4009407D077FD3E
:1047800009D00E94CE2307FC05D03EF49095819578
:104790009F4F0895709561957F4F0895AA1BBB1B8D
:1047A00051E107C0AA1FBB1FA617B70710F0A61B31
:1047B000B70B881F991F5A95A9F780959095BC0152
:1047C000CD010895EE0FFF1F0590F491E02D09949F
:1047D0000E94EF236894B1110C94412308950E9424
:1047E000262388F09F5798F0B92F9927B751B0F03A
:1047F000E1F0660F771F881F991F1AF0BA95C9F765
:1048000014C0B13091F00E944023B1E008950C949F
:104810004023672F782F8827B85F39F0B93FCCF352
:10482000869577956795B395D9F73EF490958095E1
:10483000709561957F4F8F4F9F4F08950F931F93F2
:10484000CF93DF938230910510F482E090E0E09105
:104850009A04F0919B0430E020E0B0E0A0E03097B3
:1048600099F42115310509F44AC0281B390B24306D
:104870003105D8F58A819B816115710589F1FB01AC
:1048800093838283FE0111C0408151810281138193
:1048900048175907E0F04817590799F4109761F045
:1048A00012960C93129713961C933296CF01DF91B8
:1048B000CF911F910F91089500939A0410939B0438
:1048C000F4CF2115310551F04217530738F0A901F3
:1048D000DB019A01BD01DF01F801C1CFEF01F9CF82
:1048E00090939B0480939A04CDCFFE01E20FF31FB7
:1048F000819391932250310939832883D7CF209116
:10490000980430919904232B41F420911A0130919D
:104910001B01309399042093980420911801309141
:1049200019012115310541F42DB73EB740911C0105
:1049300050911D01241B350BE0919804F0919904CE
:10494000E217F307A0F42E1B3F0B2817390778F066
:10495000AC014E5F5F4F2417350748F04E0F5F1FC5
:104960005093990440939804819391939FCFF0E0E2
:10497000E0E09CCFCF93DF930097E9F0FC01329702
:1049800013821282A0919A04B0919B04ED0130E051
:1049900020E01097A1F420813181820F931F209194
:1049A0009804309199042817390709F061C0F093F1
:1049B0009904E0939804DF91CF910895EA01CE170E
:1049C000DF07E8F54A815B819E0141155105B1F78A
:1049D000E901FB83EA8349915991C40FD51FEC1774
:1049E000FD0761F4808191810296840F951FE90192
:1049F00099838883828193819B838A83F0E0E0E0BE
:104A000012968D919C9113970097B9F52D913C9139
:104A10001197CD010296820F931F20919804309137
:104A200099042817390739F6309751F510929B04ED
:104A300010929A04B0939904A0939804BCCFD383A6
:104A4000C28340815181840F951FC817D90761F433
:104A50004E5F5F4F88819981480F591F5183408372
:104A60008A819B81938382832115310509F0B0CF20
:104A7000F0939B04E0939A049ECFFD01DC01C0CF2C
:104A800013821282D7CFB0E0A0E0E9E4F5E20C9403
:104A900054238C01009751F4CB010E941E248C01F9
:104AA000C801CDB7DEB7E0E10C947023FC01E60F3E
:104AB000F71F9C0122503109E217F30708F49DC04B
:104AC000D901CD91DC911197C617D70798F0C53061
:104AD000D10530F3CE0104978617970708F3C61B5C
:104AE000D70B2297C193D1936D937C93CF010E94F2
:104AF000BA24D6CF5B01AC1ABD0A4C018C0E9D1EA8
:104B0000A0919A04B0919B04512C412CF12CE12CE2
:104B1000109731F580919804909199048815990522
:104B200009F05CC04616570608F058C0809118017D
:104B300090911901009741F48DB79EB740911C01E7
:104B400050911D01841B950BE817F90708F055C01B
:104B5000F0939904E0939804F90171836083A0CFE6
:104B60008D919C91119712966C90129713967C9050
:104B70001397A815B90559F56C0142E0C40ED11C74
:104B8000CA14DB0420F1AC014A195B09DA01129660
:104B9000159780F06282738251834083D9016D93AF
:104BA0007C93E114F10471F0D7011396FC93EE931A
:104BB000129776CF22968C0F9D1FF90191838083E7
:104BC000F301EFCFF0939B04E0939A0469CF48166A
:104BD000590608F42C017D01D3019ACFCB010E9424
:104BE0001E247C01009749F0AE01B8010E94002606
:104BF000C8010E94BA24870153CF10E000E050CFD3
:104C0000FB01DC0102C001900D9241505040D8F7E9
:104C100008956817790768F4FB01DC01E40FF51FBC
:104C2000A40FB51F02C002900E9241505040D8F719
:104C300008950C940026DC0101C06D934150504052
:104C4000E0F70895FB01DC0101900D920020E1F7EF
:104C5000089510E0CFEED0E004C0FE010E94E223F0
:0C4C60002196C03FD107C9F7F894FFCFA0
:104C6C002861640AFD7D61662861640AFD6904EBB4
:104C7C0000C0DEADBEEF000500009C04800001000A
:104C8C005E00000000044D5154540400000000E18B
:104C9C00064512A80792018E013914C00E3511D0A9
:104CAC000FF90B190798176D0CDA141A14680758BA
:104CBC0007540750075E00BC007701000000001588
:104CCC00057504A2046205D304B104C504000000F8
:104CDC00008F076F07A807A7070000000002077FD7
:104CEC00123C12271241136314CF0EB3100B187D14
:104CFC0014340C120CBD09C5096A19BA09B809F7A4
:104D0C0006AE09B01496188614AA0900000000DF3C
:104D1C000A0D0A004E616368726963687420656DE0
:104D2C007066616E67656E205B005D3A20005665AB
:104D3C007262696E64756E67207A756D204D515480
:104D4C00542D536572766572206175666261756566
:104D5C006E2E2E2E0054656D705F47494D415F4697
:104D6C006163686D61726B74006869746573680067
:104D7C00524F39555A3777414E43587A6D790076F0
:104D8C00657262756E64656E004665686C65722C42
:104D9C002072633D002065726E65757420766572B5
:104DAC0073756368656E20696E20352053656B756D
:104DBC006E64656E0054656D706572617475722FEA
:104DCC004865697A6F6D61742F45696E747261679D
:104DDC00526F68722F310054656D70657261747515
:104DEC00722F4865697A6F6D61742F45696E7472A4
:0A4DFC006167526F68722F320000E9
:00000001FF
